:020000040800F2
:10300000D826002001310008313B0008F5390008BE
:103010002D3B00089D31000893450008000000008A
:10302000000000000000000000000000113D00084A
:10303000A131000800000000B93B0008C53E0008AF
:103040001B3100081B3100081B3100081B31000830
:103050001B3100081B3100081B3100081B31000820
:103060001B310008E9310008953200081B310008C7
:103070001B3100081B3100081B3100081B31000800
:103080001B3100081B3100081B3100081B310008F0
:103090001B3100081B3100081B3100081B310008E0
:1030A0001B3100081B3100081B3100081B310008D0
:1030B0001B310008293F0008853F00081B3100082C
:1030C0001B3100081B3100081B3100081B310008B0
:1030D0001B310008FD4000087941000891420008BA
:1030E0001B3100081B3100081B310008DFF80CD031
:1030F00000F042F80048004771490008D826002037
:103100000648804706480047FEE7FEE7FEE7FEE781
:10311000FEE7FEE7FEE7FEE7FEE7FEE7C93E000842
:10312000ED300008D2B201E000F8012B491EFBD2BD
:1031300070470022F6E710B513460A4604461946C2
:10314000FFF7F0FF204610BD10B5002200E0521C32
:10315000835C8C5CA34201D1002BF8D1D8B2E1B2E0
:10316000401A10BD034611F8012B00F8012B002A6C
:10317000F9D1184670470000064C074D06E0E0689C
:1031800040F0010394E8070098471034AC42F6D3AE
:10319000FFF7B0FF504A0008704A000800BFFEE782
:1031A000704700B5034603E04FF47A7000F005F86D
:1031B000181EA3F10103F7D100BD00EBC001C90047
:1031C0004FF0E0225161002191610521116100BFA2
:1031D0004FF0E021096901F480310029F8D0042181
:1031E0004FF0E022116170471CB5082000F096F8FE
:1031F000002846D0002240F22551224801F02FF944
:1032000001221146204800F01DFF00201F490860E0
:1032100000F080FD002000E0401C41F2B3518842E4
:10322000FADD00F08FFDAA208DF8000001208DF856
:10323000010002208DF802000321684601F03DFBE9
:103240008DF803000D208DF8040000240DE01DF81A
:1032500004100F4801F099F900BF80210C4801F0DB
:10326000C7F80028F9D0601CC4B2052CEFDB01229E
:1032700040F22551034801F0F2F8082000F048F828
:1032800000BF1CBD0044004000040040740000204A
:10329000003801401CB5102000F040F890B3002227
:1032A00040F22551184801F0DAF8AA208DF8000004
:1032B00001208DF801008DF802000321684601F01D
:1032C000FCFA8DF803000D208DF8040000240DE0B9
:1032D0001DF804100D4801F058F900BF80210B487B
:1032E00001F086F80028F9D0601CC4B2052CEFDB91
:1032F000012240F22551044801F0B1F8102000F0FD
:1033000007F800BF1CBD0000004400400038014029
:103310000149086070470000140401400146002084
:103320000022074B1B6803EA0102054B14331B689C
:103330000B4013B10AB1012000E0002070470000EB
:1033400000040140002123498279002A3AD00A462C
:10335000126803689A430B461A600A1D12680368D4
:103360009A430B1D1A60027911440A6803681A43D4
:103370000A60184A0832126803689A43154B0833EA
:103380001A601A1D126803689A43124B0C331A60B4
:103390004279102A0ED11A1F126803681A430D4B86
:1033A00008331A601A1D126803681A43094B0C335C
:1033B0001A600DE00749427911440A6803681A430C
:1033C0000A6005E0027911440A6803689A430A60BA
:1033D00070470000000401400149C86070470000C8
:1033E0000020024030B5044604254FF4302000F0A0
:1033F0006FF80546042D17D10C48006940F0020013
:103400000A49086108464461006940F040000861CB
:103410004FF4302000F05CF805460448006941F69E
:10342000FD71084001490861284630BD0020024076
:1034300004200B49C96801F0010109B101200EE027
:103440000749C96801F0040109B1022007E00449F5
:10345000C96801F0100109B1032000E004207047A1
:10346000002002400348006940F0800001490861E3
:10347000704700000020024070B504460D46042647
:10348000F00200F025F80646042E11D10948006923
:1034900040F00100074908612580F00200F018F8AB
:1034A00006460448006941F6FE710840014908617A
:1034B000304670BD0020024002480349486003487E
:1034C000486070472301674500200240AB89EFCD7B
:1034D00000B502460423FFF7ABFF034603E0FFF706
:1034E000A7FF0346521E012B01D1002AF7D102B9D2
:1034F0000523184600BD000030B500228B071C0FC5
:103500000F2303FA04F20B4B8C1053F8243093432F
:10351000084C8D1044F8253023468C1053F8243085
:103520008C07240F00FA04F42343024C8D1044F856
:10353000253030BD080001402DE9F041024600254C
:103540000026002000230024002791F803C00CF07F
:103550000F0591F803C00CF0100CBCF1000F03D064
:1035600091F802C04CEA050591F800C0BCF1000FCB
:1035700031D0146800202BE04FF0010C0CFA00F35E
:10358000B1F800C00CEA03069E4220D183004FF040
:103590000F0C0CFA03F7BC4305FA03FC4CEA0404D5
:1035A00091F803C0BCF1280F06D14FF0010C0CFAC2
:1035B00000FCC2F814C00AE091F803C0BCF1480F47
:1035C00005D14FF0010C0CFA00FCC2F810C0401CF1
:1035D0000828D1D31460B1F800C0BCF1FF0F34DD6E
:1035E000546800202EE000F1080C4FF0010808FAA2
:1035F0000CF3B1F800C00CEA03069E4221D183000F
:103600004FF00F0C0CFA03F7BC4305FA03FC4CEA2D
:10361000040491F803C0BCF1280F05D100F1080C97
:1036200008FA0CF8C2F8148091F803C0BCF1480FF6
:1036300007D100F1080C4FF0010808FA0CF8C2F8A5
:103640001080401C0828CED35460BDE8F0810000F3
:10365000F0B50A46002300240021002500F00046B2
:10366000B6F1004F02D11D4EF16901E01B4E7168A9
:10367000C0F3034583B200F44016B6F5401F08D1ED
:1036800021F07061154E766826F07066134F7E60EB
:1036900012E000F48016B6F5801F06D1032606FA64
:1036A00005F4A14341F0706106E0460D360103FACE
:1036B00006F6B14341F0706122B1460D360103FABE
:1036C00006F6314300F00046B6F1004F02D1034E3A
:1036D000F16101E0014E7160F0BD000000000140A9
:1036E0000AB1016100E04161704700001CB57D48EE
:1036F00001687D48FFF728FD002845D100F03AFB1E
:1037000000207A490870AA208DF8000011208DF859
:103710000100AB208DF802000321684601F0CDF8CE
:103720008DF803000D208DF8040000240DE01DF835
:1037300004106F4800F029FF00BF80216C4800F0A2
:1037400057FE0028F9D0601CC4B2052CEFDB6420C2
:10375000FFF727FD4FF400616648FFF7EAFC4FF4DE
:1037600000616548FFF7E5FC002064490880644972
:10377000087000220121634800F064FC00206249C7
:103780000860624908609DE0614801685648FFF79B
:10379000DBFC002844D100F0BDFA002000E0401C12
:1037A00041F2B3518842FADD01205049087057496F
:1037B0000860AA208DF8000011208DF80100AB20D0
:1037C0008DF802000321684601F077F88DF80300B8
:1037D0000D208DF8040000240DE01DF8041044486D
:1037E00000F0D3FE00BF8021414800F001FE002818
:1037F000F9D0601CC4B2052CEFDB6420FFF7D1FCCC
:103800004FF400613B48FFF794FC4FF400613A48E5
:10381000FFF78FFC0020394908803949087051E0D2
:103820003C4801683048FFF78FFC78B900F0BAFADD
:10383000002000E0401C41F2B3518842FADD6420D0
:10384000FFF7AFFC6420FFF7ACFC3BE032480168B7
:103850002548FFF779FC80B900F048FF00BF2F48EA
:10386000006800F4E0602E490843001D2B49086001
:10387000BFF34F8F00BF00BFFEE7AA208DF8000006
:1038800011208DF80100FF208DF802000321684609
:1038900001F013F88DF803000D208DF804000024CA
:1038A0000DE01DF80410124800F06FFE00BF8021EB
:1038B0000F4800F09DFD0028F9D0601CC4B2052C13
:1038C000EFDB00BF4FF400611648FFF732FC4FF406
:1038D00000610548FFF72DFC0020134908801349BB
:1038E00008701CBD6C000020D41A00207800002055
:1038F00000380140D4020020D40A0020200000201B
:10390000240000200004004074000020A481214213
:103910007000002068000020280000200CED00E06E
:103920000000FA05D412002022000020250000200B
:1039300000B5ADF21C4D2348007801282DD1224A54
:1039400022A101A800F026FF0120FFF736FC01A903
:1039500020A000F00FFF002201211F4800F072FBA1
:103960001E480078012804D11D49086000201D4927
:1039700008604FF400611C48FFF7DBFB4FF4006167
:103980001148FFF7D6FB0020184908801849087035
:103990000C4908700DF21C4D00BD0B490DA000F044
:1039A000E9FE4FF400611048FFF7C3FB4FF40061DC
:1039B0000548FFF7BEFB00200C4908800C49087041
:1039C00000BFE7E77A000020D40A0020413A2573BF
:1039D0000000000025730000000400407800002073
:1039E000A481214274000020D40200202000002085
:1039F0002400002000BFFEE71FB50121042000F0D5
:103A0000DDF842F2C320ADF8080043F67F60ADF860
:103A100004000020ADF80A00ADF8060001A90F4827
:103A200000F01AFB012211460C4800F00BFB0121AB
:103A30000A4800F0EAFA4FF4A06000F0B3F81E2044
:103A40008DF8000000208DF8010001208DF80200A3
:103A50008DF80300684600F06DF81FBD00080040B7
:103A600000B585B001210C2000F0C8F810208DF8B9
:103A70001300C002ADF8100003208DF8120004A955
:103A80002748FFF759FD10208DF813004001ADF8CD
:103A9000100003208DF8120004A92248FFF74CFD06
:103AA000012251021F48FFF71BFE0122D1031C48CF
:103AB000FFF716FE0121084600F0A0F801210220C0
:103AC00000F07CF84FF4E160ADF8080042F2F0300D
:103AD000ADF804000020ADF80A00ADF8060001A919
:103AE000114800F0B9FA002201210F4800F0AAFAAB
:103AF00001210D4800F089FA4FF4A06000F052F85F
:103B00001D208DF8000001208DF801008DF80200C5
:103B10008DF80300684600F00DF805B000BD000008
:103B200000080140000C01400004004000BFFEE717
:103B30007047000070B5002100230F22C47804B341
:103B4000154C246804F4E064C4F5E064210AC1F172
:103B50000403CA40447804FA03F1847814402143F2
:103B600009010E4C0678A155047804F01F050124C4
:103B7000AC4005786D11AD0005F1E025C5F80041B8
:103B800009E0047804F01F050124AC40044D0678D8
:103B9000761145F8264070BD0CED00E000E400E031
:103BA00080E100E002490143024A116070470000D1
:103BB0000000FA050CED00E07047000029B1064A4C
:103BC000D2690243044BDA6104E0034AD2698243BA
:103BD000014BDA61704700000010024029B1064A2B
:103BE00012690243044B1A6104E0034A12698243DA
:103BF000014B1A61704700000010024029B1064ACB
:103C000092690243044B9A6104E0034A9269824339
:103C1000014B9A61704700000010024029B1064A2A
:103C2000D2680243044BDA6004E0034AD26882435C
:103C3000014BDA60704700000010024030B50021EF
:103C40000022002400232D4D6D6805F00C0121B1E8
:103C5000042905D0082923D105E0294D056022E07B
:103C6000274D05601FE0254D6D6805F47012234D4A
:103C70006D6805F48034022505EB92421CB9214D94
:103C8000554305600BE01D4D6D6805F400351DB111
:103C90001C4D5543056002E0194D5543056002E097
:103CA000174D056000BF00BF144D6D6805F0F001B1
:103CB0000909154D6B5C0568DD4045600F4D6D6869
:103CC00005F4E061090A104D6B5C4568DD408560D4
:103CD0000A4D6D6805F46051C90A0B4D6B5C45686F
:103CE000DD40C560054D6D6805F44041890B074D09
:103CF0006B5CC568B5FBF3F5056130BD0010024093
:103D000000127A0000093D00000000201000002091
:103D10007047000010B500240DE00848015D084818
:103D200000F033FC00BF8021054800F061FB002853
:103D3000F9D0601C84B2092CEFDB10BD50000020CC
:103D40000044004010B500240DE00848015D08481B
:103D500000F01BFC00BF8021054800F049FB002853
:103D6000F9D0601C84B2092CEFDB10BD5900002093
:103D70000044004010B500240DE00848015D0848EB
:103D800000F003FC00BF8021054800F031FB002853
:103D9000F9D0601C84B2092CEFDB10BD3500002087
:103DA0000044004010B500240EE00A480068015DA0
:103DB000094800F0EAFB00BF8021074800F018FB2B
:103DC0000028F9D0601C84B202480068005D002819
:103DD000EBD110BD640000200044004010B500F09D
:103DE00001F810BD0CB50020019000903348006828
:103DF00040F480303149086000BF3048006800F46A
:103E0000003000900198401C0190009818B901986A
:103E1000B0F5A06FF1D12948006800F4003010B16E
:103E20000120009001E0002000900098012843D17B
:103E30002348006840F010002149086008460068E7
:103E400020F0070008600846006840F002000860A3
:103E50001A48406819494860084640684860084662
:103E6000406840F4806048600846406820F47C1058
:103E700048600846406840F4E8104860084600681A
:103E800040F08070086000BF0C48006800F00070CF
:103E90000028F9D00948406820F00300074948602D
:103EA0000846406840F00200486000BF0348406890
:103EB00000F00C000828F9D10CBD000000100240F1
:103EC000002002407047000010B51248006840F022
:103ED000010010490860084640680F4908400D4934
:103EE0004860084600680D4908400A4908600846CD
:103EF000006820F4802008600846406820F4FE0036
:103F000048604FF41F008860FFF768FF04480549C8
:103F1000086010BD001002400000FFF8FFFFF6FE31
:103F20000030000808ED00E010B50121124800F053
:103F300078F801281ED111480068401C0F4908601C
:103F40000F48006808B9012000E000200C49086013
:103F50000A480068462809D1012008600022012192
:103F6000054800F06FF8002004490860012102486C
:103F700000F048F810BD000000040040740000206C
:103F8000A48121421CB501211B4800F04AF80128F8
:103F900031D11A480078012804D10121164800F0D7
:103FA00031F828E0AA208DF8000011208DF80100DA
:103FB00055208DF802000321684600F07EFC8DF844
:103FC00003000D208DF8040000240DE01DF80410FE
:103FD0000B4800F0DAFA00BF8021094800F008FA27
:103FE0000028F9D0601CC4B2052CEFDB0121024887
:103FF00000F008F800BF1CBD0008004024000020AD
:1040000000380140CA430282704721B1028842F061
:104010000102028004E002884FF6FE731A4002801B
:10402000704730B50246002000230024158A05EAB7
:104030000103958905EA010413B10CB1012000E0E8
:10404000002030BD1AB183890B43838102E083894C
:104050008B43838170470000002202881D4B9842E9
:104060000ED01D4B98420BD0B0F1804F08D01B4BA7
:10407000984205D01A4B984202D01A4B984204D16C
:104080004FF68F731A404B881A43174B984207D04C
:10409000164B984204D04FF6FF431A40CB881A4380
:1040A00002808B8883850B8803850A4B98420BD04E
:1040B000094B984208D00E4B984205D00D4B9842C0
:1040C00002D00D4B984201D10B7A038601238382E3
:1040D00070470000002C0140003401400004004003
:1040E00000080040000C0040001000400014004098
:1040F00000400140004401400048014010B540F23A
:104100002551184800F081F950B3164800F038FAEC
:10411000C4B215480088B0F5006F02D300201249E0
:104120000880114801880088401C0F4A10800F4801
:1041300044541046008802280CDB10460088401EBC
:104140000A49085C0D2805D10948FFF70BF8012042
:104150000849087040F22551024800F0DFF800BF1E
:1041600010BD00000038014022000020D4120020C1
:10417000D41A00202500002010B540F225513E48F9
:1041800000F043F9002875D03B4800F0F9F9C4B2BB
:104190003A480088B0F5006F02D300203749088004
:1041A000364801880088401C344A10803448445402
:1041B00010460088C01F3249085C02282ED11046E4
:1041C0000088801F085C48BB10460088401F085CC0
:1041D00020BB10460088001F085C01281ED1104635
:1041E0000088C01E085CC8B910460088801E085CA4
:1041F000332813D110460088401E085C31280DD1A9
:104200004FF400611E48FEF794FF4FF400611D4813
:10421000FEF78FFF00201949088025E01748008825
:10422000022821DB15480088401E1549085C0D282E
:1042300005D012480088401E085C2E2814D1104971
:104240001048FEF78FFF0D480088401E0C49085C9F
:104250000D2801D1012000E00020012801D10A49E8
:10426000087001200949087040F22551024800F009
:1042700055F800BF10BD00000044004020000020A1
:10428000D4020020D40A00207A000020240000205C
:1042900010B540F225511D4800F0B7F810B31B4887
:1042A00000F06EF9C4B21A48008800F40040C8B9A2
:1042B0001748008800F4804060B10A2C03D0002029
:1042C0001349088020E01248008840F4004010495B
:1042D000088019E00D2C06D10D48008840F480407C
:1042E0000B49088010E00B480088C0F30D000A4914
:1042F0000C5407480088401C05490880084600887F
:10430000C72801DD0020088010BD000000480040E3
:104310001C0000201A0000200C02002010B5002212
:10432000002340F66A14A14200D100BF0A12012402
:104330009440A3B2DC43048010BD21B1828942F4D1
:104340000052828104E082894DF6FF731A40828117
:104350007047000010B504462048844209D101216D
:104360008803FFF75BFC00214FF48040FFF756FC09
:1043700032E01B48844209D101214804FFF72EFC9A
:1043800000214FF40030FFF729FC25E01548844256
:1043900009D101218804FFF721FC00214FF480207E
:1043A000FFF71CFC18E01048844209D10121C80421
:1043B000FFF714FC00214FF40020FFF70FFC0BE087
:1043C0000A48844208D101210805FFF707FC0021B3
:1043D0004FF48010FFF702FC10BD000000380140D0
:1043E0000044004000480040004C004000500040A5
:1043F00002460020B1F5007F00D100BF13880B40BA
:104400000BB1012000E00020704770B50246002487
:1044100000230025002040F66A16B14200D100BFFB
:10442000C1F3421501F01F03012606FA03F3012D23
:1044300002D19689334006E0022D02D1168A33401C
:1044400001E0968A33400C12012606FA04F416881D
:10445000344013B10CB1012000E0002070BDF0B574
:104460000346002400260025002040F66A17B942C2
:1044700000D100BF1846C1F3421401F01F06012706
:1044800007FA06F5012C01D10C3004E0022C01D111
:10449000103000E014301AB107682F43076002E0C3
:1044A0000768AF430760F0BD2DE9F04786B00546C9
:1044B0000E460024A24600BFA1460027B08900B1E5
:1044C00000BF2F462C8A4CF6FF700440F08804434E
:1044D0002C82AC894EF6F3100440B0883189084331
:1044E000718908430443AC81AC8A4FF6FF40044015
:1044F000B0890443AC8201A8FFF7A0FB1F488742A4
:1045000002D1DDF810A001E0DDF80CA0A88900F4CC
:10451000004040B10AEBCA0000EB0A1031684900C4
:10452000B0FBF1F807E00AEBCA0000EB0A103168B3
:104530008900B0FBF1F86420B8FBF0F00401200919
:10454000642101FB1089A88900F4004040B13220A9
:1045500000EBC900B0FBF1F000F00700044308E0F5
:10456000322000EB09106421B0FBF1F000F00F00E5
:1045700004432C8106B0BDE8F087000000380140FC
:1045800001468888C0F308007047C1F308028280A2
:10459000704700BFFEE7000010B586B00446012159
:1045A00044F20400FFF72AFB2448FFF7D3FE18204B
:1045B0008DF817004FF40070ADF8140003208DF84B
:1045C000160005A91E48FEF7B7FF04208DF8170056
:1045D0000002ADF8140003208DF8160005A9184854
:1045E000FEF7AAFF25208DF8100001208DF813009A
:1045F00003208DF811008DF8120004A8FFF79AFA35
:1046000000940020ADF80C000C20ADF80A0000204A
:10461000ADF80800ADF80600ADF80400694607489B
:10462000FFF742FF012240F225510448FFF717FF30
:1046300001210248FFF781FE06B010BD003801409D
:104640000008014010B586B0044601210420FFF7A0
:10465000D5FA01214804FFF7B1FA2248FFF77AFEA4
:1046600018208DF817000420ADF8140003208DF8F1
:10467000160005A91C48FEF75FFF04208DF81700FF
:104680000820ADF8140005A91748FEF755FF01945E
:104690000020ADF810000C20ADF80E000020ADF8A1
:1046A0000C00ADF80A00ADF8080001A90D48FFF7AD
:1046B000FBFE01210B48FFF740FE012240F225518D
:1046C0000848FFF7CCFE26208DF8000001208DF869
:1046D00003008DF801008DF802006846FFF72AFA02
:1046E00006B010BD00440040000801402DE9FF4124
:1046F0000425DFF86C801BA30FCB8DE80F000B2780
:1047000072B6FEF7D9FE3520FEF766FE4FF0006167
:1047100001EB8720FEF766FE0546042D04D0FEF768
:10472000A1FE62B6BDE8FF81002410E01DF8041070
:10473000601C1DF8000041EA002608EB0400314629
:10474000FEF79AFE0546042D00D002E0A41C0D2CB5
:10475000ECD300BFFEF786FE62B600BFE2E70000C2
:10476000002C00084150502D56302E312D4C6565DF
:10477000000000000FB4054B10B503A9044A0298CD
:1047800000F02BF810BC5DF814FB0000D5480008C1
:10479000140000200FB4084B10B504A902AA039816
:1047A00000F01BF8044602A9002000F081F8204622
:1047B00010BC5DF814FB0000B148000802E008C816
:1047C000121F08C1002AFAD170477047002001E08B
:1047D00001C1121F002AFBD170472DE9F84F9946FD
:1047E000924688460546002706E025280AD051460D
:1047F0004A4690476D1C7F1C28780028F5D1384622
:10480000BDE8F88F002315F8011F18462E2915D191
:1048100015F8011F04232A290DD06FF02F022978E3
:10482000A1F13004092C09D800EB800002EB400014
:1048300008446D1CF3E758F8040B6D1C2A78002A15
:10484000DDD0632A07D0732A0FD0104651464A465E
:1048500090477F1C2AE018F8042B8DF800200021D7
:104860008DF801106E46012103E058F8046B4FF0FB
:10487000FF315A074FF0000401D409E0641C844260
:104880000BDA8C42FADB325D002AF7D105E0641CBA
:104890008C42FCDB305D0028F9D1274404E016F897
:1048A000010B51464A469047641EF8D26D1CA3E79F
:1048B0000A68531C0B601070704710B50246002345
:1048C000002002E0145C6340401C8842FADB18467A
:1048D00010BD000000BF054A128802F04002002A05
:1048E000F9D0C2B2014B1B1D1A807047003801403D
:1048F0001FB501210820FFF781F91820ADF80C0041
:1049000004208DF80F0003A91848FEF715FE0121B9
:104910000846FFF773F903210120FEF7EDFD04219E
:104920000120FEF7E9FD1820019000208DF8080015
:1049300008208DF8090001208DF80A0001A8FEF773
:1049400001FD09208DF800000F208DF801008DF881
:10495000020001208DF803006846FFF7EBF80A20FB
:104960008DF800006846FFF7E5F81FBD000C014018
:10497000FFF7AAFA01210846FFF740F901211B4879
:10498000FEF766FE4FF4E130FFF75CFE4FF4E130D6
:10499000FFF702FEFFF7ACFFFFF762F800201449B3
:1049A0000860FFF7B7F96420FEF7FBFB4FF40061E6
:1049B0001048FEF7BEFB4FF400610F48FEF7B9FB4D
:1049C00000200E4908800E490870FFF715F80BE02B
:1049D0000B480078012801D1FEF7AAFF09480078AA
:1049E000012801D1FEF782FEF2E70000000230004C
:1049F000BC012142D4020020D40A00202000002063
:104A00002400002025000020424F4F540D000000DC
:104A10005265616444657669636549442E0000000F
:104A200041545F5265616444657669636549440D2C
:104A30000000000041545F4D414E55414C0D0000B7
:104A400041545F434F4E54494E554F55530D00004E
:104A5000704A0008000000207C000000BC470008ED
:104A6000EC4A00087C0000205C260000CC470008CF
:104A70000000000001020304010203040607080904
:104A80000204060800000000000000000000000012
:104A90000000000000000000084A00087E00080135
:104AA0000000D4ABCD7E0008010000D6ABCD7E0067
:104AB00008010006FEABCD7E00080100069BABCDD1
:104AC0007E0008010000D5EF417E000801000201D0
:104AD00002DA0000104A0008204A0008404A000894
:0C4AE000344A0008000000000100000043
:04000005080030EDD2
:00000001FF
