:020000040800F2
:10000000D026002001010008E9090008AD08000819
:10001000E50900089D0100084B14000800000000DD
:10002000000000000000000000000000C90B0008F4
:10003000A101000800000000710A00087D0D000801
:100040001B0100081B0100081B0100081B01000820
:100050001B0100081B0100081B0100081B01000810
:100060001B010008E9010008A50200081B010008A7
:100070001B0100081B0100081B0100081B010008F0
:100080001B0100081B0100081B0100081B010008E0
:100090001B0100081B0100081B0100081B010008D0
:1000A0001B0100081B0100081B0100081B010008C0
:1000B0001B010008E10D00083D0E00081B010008AF
:1000C0001B0100081B0100081B0100081B010008A0
:1000D0001B010008B50F0008311000084911000885
:1000E0001B0100081B0100081B010008DFF80CD0F1
:1000F00000F042F800480047A1170008D026002071
:100100000648804706480047FEE7FEE7FEE7FEE7B1
:10011000FEE7FEE7FEE7FEE7FEE7FEE7810D0008EB
:10012000ED000008D2B201E000F8012B491EFBD21D
:1001300070470022F6E710B513460A4604461946F2
:10014000FFF7F0FF204610BD10B5002200E0521C62
:10015000835C8C5CA34201D1002BF8D1D8B2E1B210
:10016000401A10BD034611F8012B00F8012B002A9C
:10017000F9D1184670470000064C074D06E0E068CC
:1001800040F0010394E8070098471034AC42F6D3DE
:10019000FFF7B0FF741800089418000800BFFEE7CE
:1001A000704700B5034603E04FF47A7000F005F89D
:1001B000181EA3F10103F7D100BD00EBC001C90077
:1001C0004FF0E0225161002191610521116100BFD2
:1001D0004FF0E021096901F480310029F8D00421B1
:1001E0004FF0E022116170471CB5082000F09EF826
:1001F00000284BD0002240F22551254801F08BF811
:1002000024480078012813D101221146224800F029
:1002100075FE00202149086000F0D8FC002000E0B5
:10022000401C41F2B3518842FADD00F0E7FC24E0C3
:10023000AA208DF8000001208DF8010002208DF821
:1002400002000321684601F050FA8DF803000D20EA
:100250008DF8040000240DE01DF80410104801F092
:10026000F0F800BF80210E4801F01EF80028F9D0F8
:10027000601CC4B2052CEFDB00BF012240F2255107
:10028000034801F048F8082000F04AF81CBD0000BF
:100290000044004070000020000400406C0000207A
:1002A000003801401CB5102000F040F890B3002247
:1002B00040F22551184801F02EF8AA208DF80000D0
:1002C00001208DF801008DF802000321684601F03D
:1002D0000CFA8DF803000D208DF8040000240DE0C9
:1002E0001DF804100D4801F0ACF800BF80210B4848
:1002F00000F0DAFF0028F9D0601CC4B2052CEFDB57
:10030000012240F22551044801F005F8102000F0C8
:1003100007F800BF1CBD0000004400400038014049
:1003200001490860704700001404014001460020A4
:100330000022074B1B6803EA0102054B14331B68BC
:100340000B4013B10AB1012000E00020704700000B
:1003500000040140002123498279002A3AD00A464C
:10036000126803689A430B461A600A1D12680368F4
:100370009A430B1D1A60027911440A6803681A43F4
:100380000A60184A0832126803689A43154B08330A
:100390001A601A1D126803689A43124B0C331A60D4
:1003A0004279102A0ED11A1F126803681A430D4BA6
:1003B00008331A601A1D126803681A43094B0C337C
:1003C0001A600DE00749427911440A6803681A432C
:1003D0000A6005E0027911440A6803689A430A60DA
:1003E000704700000004014030B500228B071C0F4D
:1003F0000F2303FA04F20B4B8C1053F82430934371
:10040000084C8D1044F8253023468C1053F82430C6
:100410008C07240F00FA04F42343024C8D1044F897
:10042000253030BD080001402DE9F041024600258D
:100430000026002000230024002791F803C00CF0C0
:100440000F0591F803C00CF0100CBCF1000F03D0A5
:1004500091F802C04CEA050591F800C0BCF1000F0C
:1004600031D0146800202BE04FF0010C0CFA00F39F
:10047000B1F800C00CEA03069E4220D183004FF081
:100480000F0C0CFA03F7BC4305FA03FC4CEA040416
:1004900091F803C0BCF1280F06D14FF0010C0CFA03
:1004A00000FCC2F814C00AE091F803C0BCF1480F88
:1004B00005D14FF0010C0CFA00FCC2F810C0401C32
:1004C0000828D1D31460B1F800C0BCF1FF0F34DDAF
:1004D000546800202EE000F1080C4FF0010808FAE3
:1004E0000CF3B1F800C00CEA03069E4221D1830050
:1004F0004FF00F0C0CFA03F7BC4305FA03FC4CEA6F
:10050000040491F803C0BCF1280F05D100F1080CD8
:1005100008FA0CF8C2F8148091F803C0BCF1480F37
:1005200007D100F1080C4FF0010808FA0CF8C2F8E6
:100530001080401C0828CED35460BDE8F081000034
:10054000F0B50A46002300240021002500F00046F3
:10055000B6F1004F02D11D4EF16901E01B4E7168EA
:10056000C0F3034583B200F44016B6F5401F08D12E
:1005700021F07061154E766826F07066134F7E602C
:1005800012E000F48016B6F5801F06D1032606FAA5
:1005900005F4A14341F0706106E0460D360103FA0F
:1005A00006F6B14341F0706122B1460D360103FAFF
:1005B00006F6314300F00046B6F1004F02D1034E7B
:1005C000F16101E0014E7160F0BD000000000140EA
:1005D0000AB1016100E04161704700001CB572483A
:1005E00001687248FFF7B0FD002845D100F01EFBFE
:1005F00000206F490870AA208DF8000011208DF8A6
:100600000100AB208DF802000321684601F06DF86F
:100610008DF803000D208DF8040000240DE01DF876
:100620000410644800F00DFF00BF8021614800F015
:100630003BFE0028F9D0601CC4B2052CEFDB64201F
:10064000FFF7AFFD4FF400615B48FFF772FD4FF419
:1006500000615A48FFF76DFD00205949088059494B
:10066000087000220121584800F048FC002057493A
:1006700008605749086086E0564801684B48FFF714
:1006800063FD002844D100F0A1FA002000E0401CE6
:1006900041F2B3518842FADD0120454908704C49C6
:1006A0000860AA208DF8000011208DF80100AB2011
:1006B0008DF802000321684601F017F88DF8030059
:1006C0000D208DF8040000240DE01DF804103948B9
:1006D00000F0B7FE00BF8021364800F0E5FD00289D
:1006E000F9D0601CC4B2052CEFDB6420FFF759FD84
:1006F0004FF400613048FFF71CFD4FF400612F48B4
:10070000FFF717FD00202E4908802E4908703AE0B7
:10071000314801682548FFF717FD78B900F09EFAC7
:10072000002000E0401C41F2B3518842FADD642011
:10073000FFF737FD6420FFF734FD24E0AA208DF891
:10074000000011208DF80100FF208DF80200032128
:10075000684600F0CAFF8DF803000D208DF80400F4
:1007600000240DE01DF80410124800F06AFE00BFDE
:100770008021104800F098FD0028F9D0601CC4B218
:10078000052CEFDB00BF4FF400611448FFF7D1FCEC
:100790004FF400610548FFF7CCFC002010490880A9
:1007A000104908701CBD000064000020CC1A002015
:1007B0007000002000380140CC020020CC0A00204C
:1007C0002000002024000020000400406C000020D5
:1007D000A48121426800002060000020CC1200208B
:1007E000220000202500002000B5ADF21C4D23485A
:1007F000007801282DD1224A22A101A800F0E2FEB2
:100800000120FFF7DAFC01A920A000F0CBFE0022B6
:1008100001211F4800F072FB1E480078012804D116
:100820001D49086000201D4908604FF400611C4804
:10083000FFF77FFC4FF400611148FFF77AFC0020BE
:1008400018490880184908700C4908700DF21C4DB1
:1008500000BD0B490DA000F0A5FE4FF4006110484B
:10086000FFF767FC4FF400610548FFF762FC0020CA
:100870000C4908800C49087000BFE7E772000020AF
:10088000CC0A0020413A25730000000025730000C7
:100890000004004070000020A48121426C00002070
:1008A000CC020020200000202400002000BFFEE732
:1008B0001FB50121042000F0DDF842F2C320ADF89D
:1008C000080043F67F60ADF804000020ADF80A0090
:1008D000ADF8060001A90F4800F01AFB01221146ED
:1008E0000C4800F00BFB01210A4800F0EAFA4FF433
:1008F000A06000F0B3F81E208DF8000000208DF8F5
:10090000010001208DF802008DF80300684600F018
:100910006DF81FBD0008004000B585B001210C2016
:1009200000F0C8F810208DF81300C002ADF81000D8
:1009300003208DF8120004A92748FFF775FD102049
:100940008DF813004001ADF8100003208DF812005F
:1009500004A92248FFF768FD012251021F48FFF752
:1009600037FE0122D1031C48FFF732FE0121084661
:1009700000F0A0F80121022000F07CF84FF4E160C3
:10098000ADF8080042F2F030ADF804000020ADF8F8
:100990000A00ADF8060001A9114800F0B9FA0022DA
:1009A00001210F4800F0AAFA01210D4800F089FA50
:1009B0004FF4A06000F052F81D208DF800000120D7
:1009C0008DF801008DF802008DF80300684600F0F4
:1009D0000DF805B000BD000000080140000C01400A
:1009E0000004004000BFFEE77047000070B5002122
:1009F00000230F22C47804B3154C246804F4E06487
:100A0000C4F5E064210AC1F10403CA40447804FA41
:100A100003F184781440214309010E4C0678A15556
:100A2000047804F01F050124AC4005786D11AD0079
:100A300005F1E025C5F8004109E0047804F01F0540
:100A40000124AC40044D0678761145F8264070BD6F
:100A50000CED00E000E400E080E100E00249014329
:100A6000024A1160704700000000FA050CED00E03A
:100A70007047000029B1064AD2690243044BDA618B
:100A800004E0034AD2698243014BDA6170470000F7
:100A90000010024029B1064A12690243044B1A6150
:100AA00004E0034A12698243014B1A617047000057
:100AB0000010024029B1064A92690243044B9A6130
:100AC00004E0034A92698243014B9A617047000037
:100AD0000010024029B1064AD2680243044BDA6092
:100AE00004E0034AD2688243014BDA607047000099
:100AF0000010024030B500210022002400232D4DBB
:100B00006D6805F00C0121B1042905D0082923D115
:100B100005E0294D056022E0274D05601FE0254DC9
:100B20006D6805F47012234D6D6805F4803402255C
:100B300005EB92421CB9214D554305600BE01D4D5C
:100B40006D6805F400351DB11C4D5543056002E08C
:100B5000194D5543056002E0174D056000BF00BF09
:100B6000144D6D6805F0F0010909154D6B5C0568C1
:100B7000DD4045600F4D6D6805F4E061090A104DD8
:100B80006B5C4568DD4085600A4D6D6805F4605119
:100B9000C90A0B4D6B5C4568DD40C560054D6D684D
:100BA00005F44041890B074D6B5CC568B5FBF3F557
:100BB000056130BD0010024000127A0000093D00BE
:100BC00000000020100000207047000010B5002435
:100BD0000DE00848015D084800F033FC00BF8021AB
:100BE000054800F061FB0028F9D0601C84B2092C94
:100BF000EFDB10BD4A0000200044004010B5002487
:100C00000DE00848015D084800F01BFC00BF802192
:100C1000054800F049FB0028F9D0601C84B2092C7B
:100C2000EFDB10BD530000200044004010B500244D
:100C30000DE00848015D084800F003FC00BF80217A
:100C4000054800F031FB0028F9D0601C84B2092C63
:100C5000EFDB10BD2F0000200044004010B5002441
:100C60000EE00A480068015D094800F0EAFB00BF99
:100C70008021074800F018FB0028F9D0601C84B2DE
:100C800002480068005D0028EBD110BD5C00002028
:100C90000044004010B500F001F810BD0CB5002074
:100CA000019000903348006840F48030314908607A
:100CB00000BF3048006800F4003000900198401CEC
:100CC0000190009818B90198B0F5A06FF1D12948AA
:100CD000006800F4003010B10120009001E0002015
:100CE00000900098012843D12348006840F010008C
:100CF000214908600846006820F00700086008469F
:100D0000006840F0020008601A48406819494860CD
:100D10000846406848600846406840F48060486083
:100D20000846406820F47C1048600846406840F45B
:100D3000E81048600846006840F08070086000BF16
:100D40000C48006800F000700028F9D0094840689D
:100D500020F00300074948600846406840F0020060
:100D6000486000BF0348406800F00C000828F9D133
:100D70000CBD00000010024000200240704700003F
:100D800010B51348006840F001001149086008469A
:100D90004068104908400E494860084600680E49FE
:100DA00008400B4908600846006820F4802008606D
:100DB0000846406820F4FE0048604FF41F00886039
:100DC000FFF768FF4FF000600449086010BD0000A5
:100DD000001002400000FFF8FFFFF6FE08ED00E003
:100DE00010B50121124800F078F801281ED11148F1
:100DF0000068401C0F4908600F48006808B90120CE
:100E000000E000200C4908600A480068462809D123
:100E10000120086000220121054800F06FF8002041
:100E2000044908600121024800F048F810BD0000A4
:100E3000000400406C000020A48121421CB5012167
:100E40001B4800F04AF8012831D11A4800780128DF
:100E500004D10121164800F031F828E0AA208DF8CD
:100E6000000011208DF8010055208DF802000321AB
:100E7000684600F03AFC8DF803000D208DF8040060
:100E800000240DE01DF804100B4800F0DAFA00BF52
:100E90008021094800F008FA0028F9D0601CC4B28B
:100EA000052CEFDB0121024800F008F800BF1CBD53
:100EB000000800402400002000380140CA4302829C
:100EC000704721B1028842F00102028004E00288EA
:100ED0004FF6FE731A400280704730B5024600207C
:100EE00000230024158A05EA0103958905EA010417
:100EF00013B10CB1012000E0002030BD1AB183898C
:100F00000B43838102E083898B4383817047000018
:100F1000002202881D4B98420ED01D4B98420BD0E8
:100F2000B0F1804F08D01B4B984205D01A4B984225
:100F300002D01A4B984204D14FF68F731A404B8857
:100F40001A43174B984207D0164B984204D04FF6DD
:100F5000FF431A40CB881A4302808B8883850B8815
:100F600003850A4B98420BD0094B984208D00E4B90
:100F7000984205D00D4B984202D00D4B984201D1BA
:100F80000B7A03860123838270470000002C014006
:100F9000003401400004004000080040000C004004
:100FA0000010004000140040004001400044014097
:100FB0000048014010B540F22551184800F081F971
:100FC00050B3164800F038FAC4B215480088B0F59E
:100FD000006F02D300201249088011480188008860
:100FE000401C0F4A10800F484454104600880228C5
:100FF0000CDB10460088401E0A49085C0D2805D10C
:101000000948FFF7AFF801200849087040F2255160
:10101000024800F0DFF800BF10BD000000380140BA
:1010200022000020CC120020CC1A00202500002035
:1010300010B540F225513E4800F043F9002875D024
:101040003B4800F0F9F9C4B23A480088B0F5006FA7
:1010500002D3002037490880364801880088401CA8
:10106000344A10803448445410460088C01F324926
:10107000085C02282ED110460088801F085C48BBFF
:1010800010460088401F085C20BB10460088001FE7
:10109000085C01281ED110460088C01E085CC8B933
:1010A00010460088801E085C332813D11046008843
:1010B000401E085C31280DD14FF400611E48FFF737
:1010C00038F84FF400611D48FFF733F80020194944
:1010D000088025E017480088022821DB1548008891
:1010E000401E1549085C0D2805D012480088401E96
:1010F000085C2E2814D110491048FFF733F80D482A
:101100000088401E0C49085C0D2801D1012000E038
:101110000020012801D10A490870012009490870FE
:1011200040F22551024800F055F800BF10BD000004
:101130000044004020000020CC020020CC0A002007
:10114000720000202400002010B540F225511D48F7
:1011500000F0B7F810B31B4800F06EF9C4B21A489B
:10116000008800F40040C8B91748008800F48040A7
:1011700060B10A2C03D000201349088020E01248F7
:10118000008840F400401049088019E00D2C06D179
:101190000D48008840F480400B49088010E00B485F
:1011A0000088C0F30D000A490C5407480088401C11
:1011B0000549088008460088C72801DD002008800E
:1011C00010BD0000004800401C0000201A00002054
:1011D0000402002010B50022002340F66A14A14248
:1011E00000D100BF0A1201249440A3B2DC43048062
:1011F00010BD21B1828942F40052828104E08289CB
:101200004DF6FF731A4082817047000010B5044606
:101210002048844209D101218803FFF75BFC0021AB
:101220004FF48040FFF756FC32E01B48844209D15E
:1012300001214804FFF72EFC00214FF40030FFF796
:1012400029FC25E01548844209D101218804FFF7D3
:1012500021FC00214FF48020FFF71CFC18E010480F
:10126000844209D10121C804FFF714FC00214FF486
:101270000020FFF70FFC0BE00A48844208D101214F
:101280000805FFF707FC00214FF48010FFF702FC70
:1012900010BD0000003801400044004000480040FC
:1012A000004C00400050004002460020B1F5007F95
:1012B00000D100BF13880B400BB1012000E00020DB
:1012C000704770B50246002400230025002040F638
:1012D0006A16B14200D100BFC1F3421501F01F03ED
:1012E000012606FA03F3012D02D19689334006E068
:1012F000022D02D1168A334001E0968A33400C1247
:10130000012606FA04F41688344013B10CB101200A
:1013100000E0002070BDF0B5034600240026002543
:10132000002040F66A17B94200D100BF1846C1F349
:10133000421401F01F06012707FA06F5012C01D11E
:101340000C3004E0022C01D1103000E014301AB14E
:1013500007682F43076002E00768AF430760F0BDEE
:101360002DE9F04786B005460E460024A24600BF90
:10137000A1460027B08900B100BF2F462C8A4CF649
:10138000FF700440F08804432C82AC894EF6F310C1
:101390000440B08831890843718908430443AC8113
:1013A000AC8A4FF6FF400440B0890443AC8201A8E8
:1013B000FFF7A0FB1F48874202D1DDF810A001E033
:1013C000DDF80CA0A88900F4004040B10AEBCA0087
:1013D00000EB0A1031684900B0FBF1F807E00AEBB6
:1013E000CA0000EB0A1031688900B0FBF1F86420F4
:1013F000B8FBF0F004012009642101FB1089A889E1
:1014000000F4004040B1322000EBC900B0FBF1F025
:1014100000F00700044308E0322000EB09106421CB
:10142000B0FBF1F000F00F0004432C8106B0BDE8E2
:10143000F08700000038014001468888C0F30800AA
:101440007047C1F308028280704700BFFEE70000CA
:1014500010B586B00446012144F20400FFF72AFBD0
:101460002448FFF7D3FE18208DF817004FF40070C2
:10147000ADF8140003208DF8160005A91E48FEF7EC
:10148000D3FF04208DF817000002ADF814000320EC
:101490008DF8160005A91848FEF7C6FF25208DF81F
:1014A000100001208DF8130003208DF811008DF835
:1014B000120004A8FFF79AFA00940020ADF80C007F
:1014C0000C20ADF80A000020ADF80800ADF80600C9
:1014D000ADF8040069460748FFF742FF012240F2D9
:1014E00025510448FFF717FF01210248FFF781FE4D
:1014F00006B010BD003801400008014010B586B0AC
:10150000044601210420FFF7D5FA01214804FFF722
:10151000B1FA2248FFF77AFE18208DF81700042050
:10152000ADF8140003208DF8160005A91C48FEF73D
:101530007BFF04208DF817000820ADF8140005A9E2
:101540001748FEF771FF01940020ADF810000C2041
:10155000ADF80E000020ADF80C00ADF80A00ADF8B3
:10156000080001A90D48FFF7FBFE01210B48FFF71A
:1015700040FE012240F225510848FFF7CCFE26200C
:101580008DF8000001208DF803008DF801008DF822
:1015900002006846FFF72AFA06B010BD004400407A
:1015A000000801400FB4054B10B503A9044A029886
:1015B00000F02BF810BC5DF814FB000005170008C4
:1015C000140000200FB4084B10B504A902AA039818
:1015D00000F01BF8044602A9002000F081F8204624
:1015E00010BC5DF814FB0000E116000802E008C81A
:1015F000121F08C1002AFAD170477047002001E08D
:1016000001C1121F002AFBD170472DE9F84F9946FE
:10161000924688460546002706E025280AD051460E
:101620004A4690476D1C7F1C28780028F5D1384623
:10163000BDE8F88F002315F8011F18462E2915D193
:1016400015F8011F04232A290DD06FF02F022978E5
:10165000A1F13004092C09D800EB800002EB400016
:1016600008446D1CF3E758F8040B6D1C2A78002A17
:10167000DDD0632A07D0732A0FD0104651464A4660
:1016800090477F1C2AE018F8042B8DF800200021D9
:101690008DF801106E46012103E058F8046B4FF0FD
:1016A000FF315A074FF0000401D409E0641C844262
:1016B0000BDA8C42FADB325D002AF7D105E0641CBC
:1016C0008C42FCDB305D0028F9D1274404E016F899
:1016D000010B51464A469047641EF8D26D1CA3E7A1
:1016E0000A68531C0B601070704710B50246002347
:1016F000002002E0145C6340401C8842FADB18467C
:1017000010BD000000BF054A128802F04002002A06
:10171000F9D0C2B2014B1B1D1A807047003801403E
:101720001FB501210820FFF7C5F91820ADF80C00FE
:1017300004208DF80F0003A91848FEF775FE01215B
:101740000846FFF7B7F903210120FEF74DFE0421FB
:101750000120FEF749FE1820019000208DF80800B6
:1017600008208DF8090001208DF80A0001A8FEF775
:10177000F1FD09208DF800000F208DF801008DF893
:10178000020001208DF803006846FFF72FF90A20B8
:101790008DF800006846FFF729F91FBD000C0140D5
:1017A00001210846FFF786F901211B48FEF7C8FE14
:1017B0004FF4E130FFF7A2FE4FF4E130FFF748FEAF
:1017C000FFF7AEFFFFF7A8F8002014490860FFF705
:1017D000FDF96420FEF7E5FC4FF400611048FEF7C8
:1017E000A8FC4FF400610F48FEF7A3FC00200E494F
:1017F00008800E490870FFF75BF80BE00B48007893
:10180000012801D1FEF7F0FF09480078012801D135
:10181000FEF7E4FEF2E7000000023000BC012142C6
:10182000CC020020CC0A0020200000202400002050
:10183000250000205265616444657669636549440A
:101840002E00000041545F5265616444657669630F
:101850006549440D0000000041545F4D414E554123
:101860004C0D000041545F434F4E54494E554F5567
:10187000530D0000941800080000002074000000C0
:10188000EC15000808190008740000205C26000010
:10189000FC1500080000000001020304010203041B
:1018A0000607080902040608000000000000000006
:1018B000000000000000000000007E0008010000A1
:1018C000D4ABCD7E0008010000D6ABCD7E00080170
:1018D0000006FEABCD7E00080100069BABCD7E006E
:1018E00008010000D5EF417E00080100020102DA84
:1018F0003418000844180008641800085818000834
:081900000000000001000000DE
:04000005080000ED02
:00000001FF
