:020000040800F2
:10300000D826002001310008293C0008ED3A0008CC
:10301000253C00089D3100080B4800080000000016
:10302000000000000000000000000000093E000851
:10303000A131000800000000B13C0008BD3F0008BD
:103040001B3100081B3100081B3100081B31000830
:103050001B3100081B3100081B3100081B31000820
:103060001B310008E9310008753200081B310008E7
:103070001B3100081B3100081B3100081B31000800
:103080001B3100081B3100081B3100081B310008F0
:103090001B3100081B3100081B3100081B310008E0
:1030A0001B310008994000081B3100081B31000843
:1030B000D940000829410008854100081B3100085B
:1030C0001B3100081B3100081B3100081B310008B0
:1030D0001B31000875430008F1430008094500084A
:1030E0001B3100081B3100081B310008DFF80CD031
:1030F00000F042F800480047F14B0008D8260020B5
:103100000648804706480047FEE7FEE7FEE7FEE781
:10311000FEE7FEE7FEE7FEE7FEE7FEE7C13F000849
:10312000ED300008D2B201E000F8012B491EFBD2BD
:1031300070470022F6E710B513460A4604461946C2
:10314000FFF7F0FF204610BD10B5002200E0521C32
:10315000835C8C5CA34201D1002BF8D1D8B2E1B2E0
:10316000401A10BD034611F8012B00F8012B002A6C
:10317000F9D1184670470000064C074D06E0E0689C
:1031800040F0010394E8070098471034AC42F6D3AE
:10319000FFF7B0FF804D0008A04D000800BFFEE71C
:1031A000704700B5034603E04FF47A7000F005F86D
:1031B000181EA3F10103F7D100BD00EBC001C90047
:1031C0004FF0E0225161002191610521116100BFA2
:1031D0004FF0E021096901F480310029F8D0042181
:1031E0004FF0E0221161704710B5082000F0A0F800
:1031F000002835D0082000F095F81A48006820F023
:103200000800184908601848007801280FD10020EC
:103210001549087000F02AFE0121144800F0F8FF5B
:103220001048006840F008000E49086010BD4CF2DC
:10323000503000E0401E0128FCDC0D480078401CA6
:103240000B49087008460078012803D10121800746
:1032500000F0DEFF0348006840F008000149086004
:1032600000BFE3E7000401407F000020002C014084
:10327000740000201CB5102000F05AF8002846D039
:10328000002240F22551234801F025FA102000F0D9
:1032900049F82148007801280FD100201E49087004
:1032A00000F0E4FD012240F225511A4801F013FA22
:1032B00001211A4800F0ACFF1CBDAA208DF80000C7
:1032C00001208DF801008DF802000321684601F00D
:1032D00030FC8DF803000D208DF8040000240DE073
:1032E0001DF804100E4801F08CFA00BF80210C4834
:1032F00001F0BAF90028F9D0601CC4B2052CEFDB4C
:10330000012240F22551034801F0E5F900BF00BF5A
:10331000D2E70000004400407F000020002C014064
:103320000038014001490860704700001404014062
:10333000014600200022074B1B6803EA0102054BEF
:1033400014331B680B4013B10AB1012000E00020C8
:103350007047000000040140002123498279002ABF
:103360003AD00A46126803689A430B461A600A1D4F
:10337000126803689A430B1D1A60027911440A68A7
:1033800003681A430A60184A0832126803689A43AD
:10339000154B08331A601A1D126803689A43124BC2
:1033A0000C331A604279102A0ED11A1F1268036872
:1033B0001A430D4B08331A601A1D126803681A432A
:1033C000094B0C331A600DE00749427911440A6831
:1033D00003681A430A6005E0027911440A68036829
:1033E0009A430A6070470000000401400149C86028
:1033F000704700000020024030B5044604254FF419
:10340000302000F06FF80546042D17D10C480069F4
:1034100040F002000A49086108464461006940F032
:10342000400008614FF4302000F05CF80546044885
:10343000006941F6FD71084001490861284630BD28
:103440000020024004200B49C96801F0010109B1C4
:1034500001200EE00749C96801F0040109B102200A
:1034600007E00449C96801F0100109B1032000E038
:1034700004207047002002400348006940F08000AB
:1034800001490861704700000020024070B5044601
:103490000D460426F00200F025F80646042E11D150
:1034A0000948006940F00100074908612580F002E1
:1034B00000F018F806460448006941F6FE7108401D
:1034C00001490861304670BD0020024002480349AE
:1034D0004860034848607047230167450020024068
:1034E000AB89EFCD00B502460423FFF7ABFF0346DF
:1034F00003E0FFF7A7FF0346521E012B01D1002A6C
:10350000F7D102B90523184600BD000030B50022EE
:103510008B071C0F0F2303FA04F20B4B8C1053F88C
:1035200024309343084C8D1044F8253023468C10EA
:1035300053F824308C07240F00FA04F42343024C80
:103540008D1044F8253030BD080001402DE9F041D0
:10355000024600250026002000230024002791F8C1
:1035600003C00CF00F0591F803C00CF0100CBCF177
:10357000000F03D091F802C04CEA050591F800C095
:10358000BCF1000F31D0146800202BE04FF0010C8B
:103590000CFA00F3B1F800C00CEA03069E4220D1F9
:1035A00083004FF00F0C0CFA03F7BC4305FA03FC41
:1035B0004CEA040491F803C0BCF1280F06D14FF087
:1035C000010C0CFA00FCC2F814C00AE091F803C028
:1035D000BCF1480F05D14FF0010C0CFA00FCC2F809
:1035E00010C0401C0828D1D31460B1F800C0BCF151
:1035F000FF0F34DD546800202EE000F1080C4FF07E
:10360000010808FA0CF3B1F800C00CEA03069E4268
:1036100021D183004FF00F0C0CFA03F7BC4305FADD
:1036200003FC4CEA040491F803C0BCF1280F05D157
:1036300000F1080C08FA0CF8C2F8148091F803C0E5
:10364000BCF1480F07D100F1080C4FF0010808FA4F
:103650000CF8C2F81080401C0828CED35460BDE896
:10366000F0810000F0B50A46002300240021002567
:1036700000F00046B6F1004F02D11D4EF16901E0A5
:103680001B4E7168C0F3034583B200F44016B6F5D3
:10369000401F08D121F07061154E766826F07066E3
:1036A000134F7E6012E000F48016B6F5801F06D13D
:1036B000032606FA05F4A14341F0706106E0460DC9
:1036C000360103FA06F6B14341F0706122B1460DAE
:1036D000360103FA06F6314300F00046B6F1004F1A
:1036E00002D1034EF16101E0014E7160F0BD0000B6
:1036F000000001400AB1016100E041617047000033
:103700001CB5A2480168A248FFF71EFD00286BD136
:1037100000F0ACFB00209F4908709F48008820F013
:1037200001009D49088000209B49183108809A4873
:103730000830008840F00100974908310880081FD0
:10374000008820F00100091F0880081F008840F051
:103750000100091F088001218F480C3800F058FD36
:1037600000208E490870AA208DF8000011208DF8E5
:103770000100AB208DF802000321684601F0D9F961
:103780008DF803000D208DF8040000240DE01DF8D5
:103790000410834801F035F800BF8021804800F014
:1037A00063FF0028F9D0601CC4B2052CEFDB642055
:1037B000FFF7F7FC4FF400617A48FFF7BAFC4FF4CB
:1037C00000617948FFF7B5FC002078490880784906
:1037D000087000220121774800F070FD0020764932
:1037E000086076490860C0E0754801686848FFF7DE
:1037F000ABFC002867D100F009FB6748008820F087
:10380000010065490880002063491831088062483A
:103810000830008840F001005F4908310880081F27
:10382000008820F00100091F0880081F008840F070
:103830000100091F0880002157480C3800F0E8FCFF
:10384000002000E0401C41F2B3518842FADD012023
:103850005249087059490860AA208DF800001120CB
:103860008DF80100AB208DF802000321684601F0BD
:1038700060F98DF803000D208DF8040000240DE0A0
:103880001DF80410464800F0BCFF00BF80214448EA
:1038900000F0EAFE0028F9D0601CC4B2052CEFDB72
:1038A0006420FFF77EFC4FF400613E48FFF741FCC7
:1038B0004FF400613C48FFF73CFC00203B49088086
:1038C0003B49087051E03F4801683148FFF73CFC34
:1038D00078B900F0E3FA002000E0401C41F2B35157
:1038E0008842FADD6420FFF75CFC6420FFF759FC96
:1038F0003BE0354801682648FFF726FC80B901F017
:1039000031F800BF3148006800F4E06030490843F6
:10391000001D2E490860BFF34F8F00BF00BFFEE7B8
:10392000AA208DF8000011208DF80100FF208DF8ED
:1039300002000321684601F0FCF88DF803000D2019
:103940008DF8040000240DE01DF80410144800F068
:1039500058FF00BF8021124800F086FE0028F9D0F1
:10396000601CC4B2052CEFDB00BF4FF400611948A6
:10397000FFF7DFFB4FF400610548FFF7DAFB00209B
:1039800015490880154908701CBD00006C00002016
:10399000D81A00207F0000200C2C01407C00002061
:1039A00000380140D8020020D80A00202000002062
:1039B000240000200004004078000020A48121425F
:1039C0007000002068000020280000200CED00E0BE
:1039D0000000FA05D8120020220000202500002057
:1039E00000B5ADF21C4D3448007801284ED1334863
:1039F0000078E8B93248008820F00100304908809A
:103A000000202F49183108802D480830008840F0E8
:103A100001002B4908310880081F008820F00100B0
:103A2000091F0880081F008840F00100091F088056
:103A3000244A25A101A800F0E9FF0120FFF7BDFB02
:103A400001A923A000F0D2FF00220121214800F0AB
:103A500035FC1A480078012804D11F49086000206D
:103A60001E4908604FF400611D48FFF762FB4FF4E8
:103A700000611448FFF75DFB00201A4908801A49CD
:103A800008700D4908700DF21C4D00BD0D4910A0C5
:103A900000F0ACFF4FF400611148FFF74AFB4FF410
:103AA00000610848FFF745FB00200E4908800E49D9
:103AB000087000BFE7E700007E0000207C000020C7
:103AC0000C2C0140D80A0020413A25730000000068
:103AD0002573000000040040A481214278000020EA
:103AE000D8020020200000202400002000BFFEE7B4
:103AF0001FB50121042000F0DDF842F2C320ADF82B
:103B0000080043F67F60ADF804000020ADF80A001D
:103B1000ADF8060001A90F4800F0DAFB01221146BA
:103B20000C4800F0CBFB01210A4800F071FB4FF478
:103B3000A06000F0B3F81E208DF8000000208DF882
:103B4000010001208DF802008DF80300684600F0A6
:103B50006DF81FBD0008004000B585B001210C20A4
:103B600000F0C8F810208DF81300C002ADF8100066
:103B700003208DF8120004A92748FFF7E7FC102066
:103B80008DF813004001ADF8100003208DF81200ED
:103B900004A92248FFF7DAFC012251021F48FFF76F
:103BA000A9FD0122D1031C48FFF7A4FD012108460D
:103BB00000F0A0F80121022000F07CF84FF4E16051
:103BC000ADF8080042F2F030ADF804000020ADF886
:103BD0000A00ADF8060001A9114800F079FB0022A7
:103BE00001210F4800F06AFB01210D4800F010FB95
:103BF0004FF4A06000F052F81D208DF80000012065
:103C00008DF801008DF802008DF80300684600F081
:103C10000DF805B000BD000000080140000C014097
:103C20000004004000BFFEE77047000070B50021AF
:103C300000230F22C47804B3154C246804F4E06414
:103C4000C4F5E064210AC1F10403CA40447804FACF
:103C500003F184781440214309010E4C0678A155E4
:103C6000047804F01F050124AC4005786D11AD0007
:103C700005F1E025C5F8004109E0047804F01F05CE
:103C80000124AC40044D0678761145F8264070BDFD
:103C90000CED00E000E400E080E100E002490143B7
:103CA000024A1160704700000000FA050CED00E0C8
:103CB0007047000029B1064AD2690243044BDA6119
:103CC00004E0034AD2698243014BDA617047000085
:103CD0000010024029B1064A12690243044B1A61DE
:103CE00004E0034A12698243014B1A6170470000E5
:103CF0000010024029B1064A92690243044B9A61BE
:103D000004E0034A92698243014B9A6170470000C4
:103D10000010024029B1064AD2680243044BDA601F
:103D200004E0034AD2688243014BDA607047000026
:103D30000010024030B500210022002400232D4D48
:103D40006D6805F00C0121B1042905D0082923D1A3
:103D500005E0294D056022E0274D05601FE0254D57
:103D60006D6805F47012234D6D6805F480340225EA
:103D700005EB92421CB9214D554305600BE01D4DEA
:103D80006D6805F400351DB11C4D5543056002E01A
:103D9000194D5543056002E0174D056000BF00BF97
:103DA000144D6D6805F0F0010909154D6B5C05684F
:103DB000DD4045600F4D6D6805F4E061090A104D66
:103DC0006B5C4568DD4085600A4D6D6805F46051A7
:103DD000C90A0B4D6B5C4568DD40C560054D6D68DB
:103DE00005F44041890B074D6B5CC568B5FBF3F5E5
:103DF000056130BD0010024000127A0000093D004C
:103E000000000020100000207047000010B50024C2
:103E10000DE00848015D084800F0F3FC00BF802178
:103E2000054800F021FC0028F9D0601C84B2092C60
:103E3000EFDB10BD500000200044004010B500240E
:103E40000DE00848015D084800F0DBFC00BF802160
:103E5000054800F009FC0028F9D0601C84B2092C48
:103E6000EFDB10BD590000200044004010B50024D5
:103E70000DE00848015D084800F0C3FC00BF802148
:103E8000054800F0F1FB0028F9D0601C84B2092C31
:103E9000EFDB10BD350000200044004010B50024C9
:103EA0000EE00A480068015D094800F0AAFC00BF66
:103EB0008021074800F0D8FB0028F9D0601C84B2AC
:103EC00002480068005D0028EBD110BD64000020AE
:103ED0000044004010B500F001F810BD0CB5002002
:103EE000019000903348006840F480303149086008
:103EF00000BF3048006800F4003000900198401C7A
:103F00000190009818B90198B0F5A06FF1D1294837
:103F1000006800F4003010B10120009001E00020A2
:103F200000900098012843D12348006840F0100019
:103F3000214908600846006820F00700086008462C
:103F4000006840F0020008601A484068194948605B
:103F50000846406848600846406840F48060486011
:103F60000846406820F47C1048600846406840F4E9
:103F7000E81048600846006840F08070086000BFA4
:103F80000C48006800F000700028F9D0094840682B
:103F900020F00300074948600846406840F00200EE
:103FA000486000BF0348406800F00C000828F9D1C1
:103FB0000CBD0000001002400020024070470000CD
:103FC00010B51248006840F001001049086008462A
:103FD00040680F4908400D494860084600680D498F
:103FE00008400A4908600846006820F480200860FC
:103FF0000846406820F4FE0048604FF41F008860C7
:10400000FFF768FF04480549086010BD0010024032
:104010000000FFF8FFFFF6FE0030000808ED00E0AA
:104020001FB50121C802FFF765FE48F69F40ADF8B5
:1040300004000020ADF8060049F63F40ADF8080046
:104040000020ADF80A000E208DF80C0001A91148DF
:1040500000F03EF901210F4800F0D4F8012211468A
:104060000C4800F02BF900210A4800F0D1F84FF479
:10407000A060FFF713FE19208DF8000001208DF8D5
:1040800001008DF802008DF803006846FFF7CEFDB1
:104090001FBD0000002C014010B501210C4800F0AC
:1040A000FCF898B101210A4800F0AFF80021084857
:1040B00000F0AEF8012007490870FFF7A7FE0020C6
:1040C00000E0401C40F213618842FADD10BD0000A0
:1040D000002C01407F00002010B50121880700F06E
:1040E000DCF8C8B10121880700F08FF800214FF0FB
:1040F000804000F08DF809480078022803DB012099
:104100000749087005E005480078012801D10549F4
:10411000087000200149087010BD000074000020E4
:10412000760000207500002010B50121124800F033
:10413000B4F801281ED111480068401C0F490860DE
:104140000F48006808B9012000E000200C49086011
:104150000A480068462809D1012008600022012190
:10416000054800F0ABF8002004490860012102482E
:1041700000F04BF810BD0000000400407800002063
:10418000A48121421CB501211B4800F086F80128BA
:1041900031D11A480078012804D10121164800F0D5
:1041A00034F828E0AA208DF8000011208DF80100D5
:1041B00055208DF802000321684600F0BAFC8DF806
:1041C00003000D208DF8040000240DE01DF80410FC
:1041D0000B4800F016FB00BF8021094800F044FAAC
:1041E0000028F9D0601CC4B2052CEFDB0121024885
:1041F00000F00BF800BF1CBD0008004024000020A8
:1042000000380140CA4302827047CA4302827047A5
:1042100021B1028842F00102028004E002884FF6D8
:10422000FE731A40028070471FB501210846FFF750
:1042300041FD40F69F70ADF8080041F61F40ADF813
:1042400004000020ADF80A00ADF8060001A94FF007
:10425000804000F03DF801218807FFF7D3FF0122DD
:104260001146900700F02AF800214FF08040FFF738
:10427000CFFF4FF4A060FFF711FD1C208DF8000068
:1042800001208DF8010000208DF8020001208DF83A
:1042900003006846FFF7CAFC1FBD30B50246002088
:1042A00000230024158A05EA0103958905EA010423
:1042B00013B10CB1012000E0002030BD1AB1838998
:1042C0000B43838102E083898B4383817047000025
:1042D000002202881D4B98420ED01D4B98420BD0F5
:1042E000B0F1804F08D01B4B984205D01A4B984232
:1042F00002D01A4B984204D14FF68F731A404B8864
:104300001A43174B984207D0164B984204D04FF6E9
:10431000FF431A40CB881A4302808B8883850B8821
:1043200003850A4B98420BD0094B984208D00E4B9C
:10433000984205D00D4B984202D00D4B984201D1C6
:104340000B7A03860123838270470000002C014012
:10435000003401400004004000080040000C004010
:1043600000100040001400400040014000440140A3
:104370000048014010B540F22551184800F081F97D
:1043800050B3164800F038FAC4B215480088B0F5AA
:10439000006F02D30020124908801148018800886C
:1043A000401C0F4A10800F484454104600880228D1
:1043B0000CDB10460088401E0A49085C0D2805D118
:1043C0000948FEF7CFFE01200849087040F2255148
:1043D000024800F0DFF800BF10BD000000380140C7
:1043E00022000020D8120020D81A0020250000202A
:1043F00010B540F225513E4800F043F9002875D031
:104400003B4800F0F9F9C4B23A480088B0F5006FB3
:1044100002D3002037490880364801880088401CB4
:10442000344A10803448445410460088C01F324932
:10443000085C02282ED110460088801F085C48BB0B
:1044400010460088401F085C20BB10460088001FF3
:10445000085C01281ED110460088C01E085CC8B93F
:1044600010460088801E085C332813D1104600884F
:10447000401E085C31280DD14FF400611E48FEF744
:1044800058FE4FF400611D48FEF753FE0020194905
:10449000088025E017480088022821DB154800889D
:1044A000401E1549085C0D2805D012480088401EA2
:1044B000085C2E2814D110491048FEF753FE0D4811
:1044C0000088401E0C49085C0D2801D1012000E045
:1044D0000020012801D10A4908700120094908700B
:1044E00040F22551024800F055F800BF10BD000011
:1044F0000044004020000020D8020020D80A0020FC
:104500007E0000202400002010B540F225511D48F7
:1045100000F0B7F810B31B4800F06EF9C4B21A48A7
:10452000008800F40040C8B91748008800F48040B3
:1045300060B10A2C03D000201349088020E0124803
:10454000008840F400401049088019E00D2C06D185
:104550000D48008840F480400B49088010E00B486B
:104560000088C0F30D000A490C5407480088401C1D
:104570000549088008460088C72801DD002008801A
:1045800010BD0000004800401C0000201A00002060
:104590001002002010B50022002340F66A14A14248
:1045A00000D100BF0A1201249440A3B2DC4304806E
:1045B00010BD21B1828942F40052828104E08289D7
:1045C0004DF6FF731A4082817047000010B5044613
:1045D0002048844209D101218803FFF79BFB002179
:1045E0004FF48040FFF796FB32E01B48844209D12C
:1045F00001214804FFF76EFB00214FF40030FFF764
:1046000069FB25E01548844209D101218804FFF7A0
:1046100061FB00214FF48020FFF75CFB18E010489D
:10462000844209D10121C804FFF754FB00214FF453
:104630000020FFF74FFB0BE00A48844208D101211C
:104640000805FFF747FB00214FF48010FFF742FBFE
:1046500010BD000000380140004400400048004008
:10466000004C00400050004002460020B1F5007FA1
:1046700000D100BF13880B400BB1012000E00020E7
:10468000704770B50246002400230025002040F644
:104690006A16B14200D100BFC1F3421501F01F03F9
:1046A000012606FA03F3012D02D19689334006E074
:1046B000022D02D1168A334001E0968A33400C1253
:1046C000012606FA04F41688344013B10CB1012017
:1046D00000E0002070BDF0B5034600240026002550
:1046E000002040F66A17B94200D100BF1846C1F356
:1046F000421401F01F06012707FA06F5012C01D12B
:104700000C3004E0022C01D1103000E014301AB15A
:1047100007682F43076002E00768AF430760F0BDFA
:104720002DE9F04786B005460E460024A24600BF9C
:10473000A1460027B08900B100BF2F462C8A4CF655
:10474000FF700440F08804432C82AC894EF6F310CD
:104750000440B08831890843718908430443AC811F
:10476000AC8A4FF6FF400440B0890443AC8201A8F4
:10477000FFF7E0FA1F48874202D1DDF810A001E000
:10478000DDF80CA0A88900F4004040B10AEBCA0093
:1047900000EB0A1031684900B0FBF1F807E00AEBC2
:1047A000CA0000EB0A1031688900B0FBF1F8642000
:1047B000B8FBF0F004012009642101FB1089A889ED
:1047C00000F4004040B1322000EBC900B0FBF1F032
:1047D00000F00700044308E0322000EB09106421D8
:1047E000B0FBF1F000F00F0004432C8106B0BDE8EF
:1047F000F08700000038014001468888C0F30800B7
:104800007047C1F308028280704700BFFEE70000D6
:1048100010B586B00446012144F20400FFF76AFA9D
:104820002448FFF7D3FE18208DF817004FF40070CE
:10483000ADF8140003208DF8160005A91E48FEF7F8
:1048400085FE04208DF817000002ADF81400032047
:104850008DF8160005A91848FEF778FE25208DF87A
:10486000100001208DF8130003208DF811008DF841
:10487000120004A8FFF7DAF900940020ADF80C004C
:104880000C20ADF80A000020ADF80800ADF80600D5
:10489000ADF8040069460748FFF742FF012240F2E5
:1048A00025510448FFF717FF01210248FFF781FE59
:1048B00006B010BD003801400008014010B586B0B8
:1048C000044601210420FFF715FA01214804FFF7EF
:1048D000F1F92248FFF77AFE18208DF8170004201E
:1048E000ADF8140003208DF8160005A91C48FEF74A
:1048F0002DFE04208DF817000820ADF8140005A93E
:104900001748FEF723FE01940020ADF810000C209C
:10491000ADF80E000020ADF80C00ADF80A00ADF8BF
:10492000080001A90D48FFF7FBFE01210B48FFF726
:1049300040FE012240F225510848FFF7CCFE262018
:104940008DF8000001208DF803008DF801008DF82E
:1049500002006846FFF76AF906B010BD0044004047
:10496000000801402DE9FF410425DFF86C801BA3FE
:104970000FCB8DE80F000B2772B6FEF7A7FD352091
:10498000FEF734FD4FF0006101EB8720FEF734FDA8
:104990000546042D04D0FEF76FFD62B6BDE8FF8129
:1049A000002410E01DF80410601C1DF8000041EA0E
:1049B000002608EB04003146FEF768FD0546042D8D
:1049C00000D002E0A41C0D2CECD300BFFEF754FD78
:1049D00062B600BFE2E70000002C00084150502DF5
:1049E00056302E312D4C6565000000000FB4054B8C
:1049F00010B503A9044A029800F02BF810BC5DF82A
:104A000014FB00004D4B0008140000200FB4084BAD
:104A100010B504A902AA039800F01BF8044602A9E5
:104A2000002000F081F8204610BC5DF814FB000067
:104A3000294B000802E008C8121F08C1002AFAD159
:104A400070477047002001E001C1121F002AFBD10E
:104A500070472DE9F84F994692468846054600274B
:104A600006E025280AD051464A4690476D1C7F1C17
:104A700028780028F5D13846BDE8F88F002315F8CE
:104A8000011F18462E2915D115F8011F04232A29C4
:104A90000DD06FF02F022978A1F13004092C09D82C
:104AA00000EB800002EB400008446D1CF3E758F86F
:104AB000040B6D1C2A78002ADDD0632A07D0732AE4
:104AC0000FD0104651464A4690477F1C2AE018F8FE
:104AD000042B8DF8002000218DF801106E46012175
:104AE00003E058F8046B4FF0FF315A074FF0000411
:104AF00001D409E0641C84420BDA8C42FADB325D9B
:104B0000002AF7D105E0641C8C42FCDB305D0028F4
:104B1000F9D1274404E016F8010B51464A46904764
:104B2000641EF8D26D1CA3E70A68531C0B6010705A
:104B3000704710B502460023002002E0145C634079
:104B4000401C8842FADB184610BD000000BF054A31
:104B5000128802F04002002AF9D0C2B2014B1B1D9C
:104B60001A807047003801401FB501210820FFF767
:104B7000C1F81820ADF80C0004208DF80F0003A92F
:104B80001A48FEF7E3FC01210846FFF7B3F80321BA
:104B90000120FEF7BBFC04210120FEF7B7FC182022
:104BA000019000208DF8080008208DF809000120F0
:104BB0008DF80A0001A8FEF7CFFB09208DF8000050
:104BC0004FF4A060FFF76AF800208DF801008DF81F
:104BD000020001208DF803006846FFF727F80A203D
:104BE0008DF800006846FFF721F81FBD000C01405A
:104BF0001CB5FFF7E5F901210846FFF77BF8012115
:104C00004048FEF72FFDFFF70BFA4FF4E130FFF7B6
:104C100055FE4FF4E130FFF7FBFDFFF7A5FFFEF770
:104C20009BFF002038490860FFF7F0F86420FEF78A
:104C3000B8FA4FF400613548FEF77BFA4FF4006193
:104C40003348FEF776FA002032490880324908706E
:104C5000FEF74EFFFFF7E8FA52E02F4800780128F0
:104C600001D1FEF7BDFE2D480078012801D1FEF7E5
:104C700047FD2B48007838B3002029490870AA2046
:104C80008DF8000001208DF8010002208DF802004F
:104C900003216846FFF74DFF8DF803000D208DF8C6
:104CA000040000240DE01DF804101E48FFF7A9FDC4
:104CB00000BF80211B48FFF7D7FC0028F9D0601CFB
:104CC000C4B2052CEFDB00BF17480078C0B100204C
:104CD0001549087015480078012811D101221146A4
:104CE0001348FFF7EBFA002012490860FFF78EF82F
:104CF000002000E0401CB0F50B7FFBDBFFF79EF8C7
:104D0000ABE7000000023000BC012142D8020020C5
:104D1000D80A0020200000202400002025000020C8
:104D20007500002000380140760000207C00002043
:104D30000004004078000020424F4F540D00000056
:104D40005265616444657669636549442E000000DC
:104D500041545F5265616444657669636549440DF9
:104D60000000000041545F4D414E55414C0D000084
:104D700041545F434F4E54494E554F55530D00001B
:104D8000A04D00080000002080000000344A000808
:104D9000204E00088000002058260000444A0008E9
:104DA00000000000010203040102030406070809D1
:104DB00002040608000000000000000000000000DF
:104DC0000000000000000000384D00087E000801CF
:104DD0000000D4ABCD7E0008010000D6ABCD7E0034
:104DE00008010006FEABCD7E00080100069BABCD9E
:104DF0007E0008010000D5EF417E0008010002019D
:104E000002DA0000404D0008504D0008704D0008C7
:104E1000644D0008000000000000000001000000D8
:04000005080030EDD2
:00000001FF
