:020000040800F2
:10000000D026002045010008DD0700081107000880
:10001000D9070008E1010008831200080000000071
:10002000000000000000000000000000A909000816
:10003000E501000800000000510800082D0C000830
:100040005F0100085F0100085F0100085F01000810
:100050005F0100085F0100085F0100085F01000800
:100060005F0100082D020008910200085F010008EE
:100070005F0100085F0100085F0100085F010008E0
:100080005F0100085F0100085F0100085F010008D0
:100090005F0100085F0100085F0100085F010008C0
:1000A0005F0100085F0100085F0100085F010008B0
:1000B0005F010008910C00085F0100085F01000863
:1000C0005F0100085F0100085F0100085F01000890
:1000D0005F010008E50D0008610E0008810F0008AF
:1000E0005F0100085F0100085F0100085F01000870
:1000F0005F0100085F0100085F0100085F01000860
:100100005F0100085F0100085F0100085F0100084F
:100110005F0100085F0100085F0100085F0100083F
:100120005F0100085F0100085F0100085F0100082F
:10013000DFF80CD000F042F8004800478D150008A9
:10014000D02600200648804706480047FEE7FEE725
:10015000FEE7FEE7FEE7FEE7FEE7FEE7FEE7FEE777
:10016000310C000831010008D2B201E000F8012B87
:10017000491EFBD270470022F6E710B513460A4627
:1001800004461946FFF7F0FF204610BD10B50022C7
:1001900000E0521C835C8C5CA34201D1002BF8D19F
:1001A000D8B2E1B2401A10BD034611F8012B00F895
:1001B000012B002AF9D1184670470000064C074D64
:1001C00006E0E06840F0010394E807009847103427
:1001D000AC42F6D3FFF7B0FF64160008841600089F
:1001E00000BFFEE7704700B5034603E04FF47A70A6
:1001F00000F005F8181EA3F10103F7D100BD00EBD4
:10020000C001C9004FF0E022516100219161052138
:10021000116100BF4FF0E021096901F4803100292C
:10022000F8D004214FF0E0221161704710B508208A
:1002300000F04CF8D8B1012211460D4800F076FDCF
:1002400001200C49087000200B49086000F0AEFB4B
:10025000002000E0401C41F2B3518842FADD00F07A
:10026000D3FB06A001F0BAF8082000F029F810BD71
:1002700000040040700000206C0000206B657931A4
:1002800020707265737320646F776E0D0A00000032
:1002900010B5102000F01AF838B100F0E1FB03A00F
:1002A00001F09CF8102000F00BF810BD6B6579325E
:1002B00020707265737320646F776E0D0A00000002
:1002C0000149086070470000140401400146002005
:1002D0000022074B1B6803EA0102054B14331B681D
:1002E0000B4013B10AB1012000E00020704700006C
:1002F00000040140002123498279002A3AD00A46AD
:10030000126803689A430B461A600A1D1268036854
:100310009A430B1D1A60027911440A6803681A4354
:100320000A60184A0832126803689A43154B08336A
:100330001A601A1D126803689A43124B0C331A6034
:100340004279102A0ED11A1F126803681A430D4B06
:1003500008331A601A1D126803681A43094B0C33DC
:100360001A600DE00749427911440A6803681A438C
:100370000A6005E0027911440A6803689A430A603A
:10038000704700000004014030B500228B071C0FAD
:100390000F2303FA04F20B4B8C1053F824309343D1
:1003A000084C8D1044F8253023468C1053F8243027
:1003B0008C07240F00FA04F42343024C8D1044F8F8
:1003C000253030BD080001402DE9F04102460025EE
:1003D0000026002000230024002791F803C00CF021
:1003E0000F0591F803C00CF0100CBCF1000F03D006
:1003F00091F802C04CEA050591F800C0BCF1000F6D
:1004000031D0146800202BE04FF0010C0CFA00F3FF
:10041000B1F800C00CEA03069E4220D183004FF0E1
:100420000F0C0CFA03F7BC4305FA03FC4CEA040476
:1004300091F803C0BCF1280F06D14FF0010C0CFA63
:1004400000FCC2F814C00AE091F803C0BCF1480FE8
:1004500005D14FF0010C0CFA00FCC2F810C0401C92
:100460000828D1D31460B1F800C0BCF1FF0F34DD0F
:10047000546800202EE000F1080C4FF0010808FA43
:100480000CF3B1F800C00CEA03069E4221D18300B0
:100490004FF00F0C0CFA03F7BC4305FA03FC4CEACF
:1004A000040491F803C0BCF1280F05D100F1080C39
:1004B00008FA0CF8C2F8148091F803C0BCF1480F98
:1004C00007D100F1080C4FF0010808FA0CF8C2F847
:1004D0001080401C0828CED35460BDE8F081000095
:1004E000F0B50A46002300240021002500F0004654
:1004F000B6F1004F02D11D4EF16901E01B4E71684B
:10050000C0F3034583B200F44016B6F5401F08D18E
:1005100021F07061154E766826F07066134F7E608C
:1005200012E000F48016B6F5801F06D1032606FA05
:1005300005F4A14341F0706106E0460D360103FA6F
:1005400006F6B14341F0706122B1460D360103FA5F
:1005500006F6314300F00046B6F1004F02D1034EDB
:10056000F16101E0014E7160F0BD0000000001404A
:100570000AB1016100E041617047000010B53A48DE
:1005800001683A48FFF702FEF0B900F069FA38A0B6
:1005900000F024FF00203B49086001203A49C1F8DF
:1005A000A4016420FFF71FFE4FF400613748FFF7F6
:1005B000E2FD4FF400613648FFF7DDFD00203549CC
:1005C0000880354908703EE0344801682748FFF745
:1005D000DDFDF0B900F070FA31A000F0FFFE002060
:1005E0003349086001203349C1F8BC016420FFF79A
:1005F000FAFD4FF400612548FFF7BDFD4FF400619F
:100600002348FFF7B8FD00202249088022490870DE
:1006100019E0294801681548FFF7B8FD78B900F0DE
:1006200075FA002000E0401C41F2B3518842FADD27
:100630006420FFF7D8FD6420FFF7D5FD03E01F49D4
:100640001FA000F0CBFE4FF400611C48FFF793FDA4
:100650004FF400610548FFF78EFD00201A4908801D
:100660001A49087010BD000064000020CC1A002058
:10067000434F4E54494E554F55535F4D4154434897
:10068000210D0A00BC01214200802142CC02002041
:10069000CC0A002020000020240000206800002058
:1006A0004D414E55414C5F4D41544348210D0A0088
:1006B000A48121420000214260000020CC120020D1
:1006C0003A25732E000000002200002025000020A3
:1006D00010B50A490AA000F081FE4FF400610948F4
:1006E000FFF749FD4FF400610448FFF744FD002087
:1006F000054908800549087010BD0000CC0A00209B
:1007000025730000CC0200202000002024000020DF
:1007100000BFFEE700B585B001210C2000F0BAF85B
:1007200010208DF81300C002ADF8100003208DF8E2
:10073000120004A92548FFF747FE10208DF813008A
:100740004001ADF8100003208DF8120004A92048E4
:10075000FFF73AFE012251021D48FFF709FF01226F
:10076000D1031A48FFF704FF0121084600F092F870
:100770000121022000F06EF84FF4E160ADF80800AE
:1007800042F2F030ADF804000020ADF80A00ADF8F8
:10079000060001A90F4800F0D3FA002201210D48FC
:1007A00000F0C4FA01210B4800F0A3FA1D208DF8D7
:1007B000000000208DF8010001208DF802008DF866
:1007C0000300684600F00CF805B000BD00080140C9
:1007D000000C01400004004000BFFEE7704700002D
:1007E00070B5002100230F22C47804B3154C24688F
:1007F00004F4E064C4F5E064210AC1F10403CA40D2
:10080000447804FA03F184781440214309010E4C22
:100810000678A155047804F01F050124AC40057842
:100820006D11AD0005F1E025C5F8004109E004783F
:1008300004F01F050124AC40044D0678761145F8FC
:10084000264070BD0CED00E000E400E080E100E037
:100850007047000029B1064AD2690243044BDA61AD
:1008600004E0034AD2698243014BDA617047000019
:100870000010024029B1064A12690243044B1A6172
:1008800004E0034A12698243014B1A617047000079
:100890000010024029B1064A92690243044B9A6152
:1008A00004E0034A92698243014B9A617047000059
:1008B0000010024029B1064AD2680243044BDA60B4
:1008C00004E0034AD2688243014BDA6070470000BB
:1008D0000010024030B500210022002400232D4DDD
:1008E0006D6805F00C0121B1042905D0082923D138
:1008F00005E0294D056022E0274D05601FE0254DEC
:100900006D6805F47012234D6D6805F4803402257E
:1009100005EB92421CB9214D554305600BE01D4D7E
:100920006D6805F400351DB11C4D5543056002E0AE
:10093000194D5543056002E0174D056000BF00BF2B
:10094000144D6D6805F0F0010909154D6B5C0568E3
:10095000DD4045600F4D6D6805F4E061090A104DFA
:100960006B5C4568DD4085600A4D6D6805F460513B
:10097000C90A0B4D6B5C4568DD40C560054D6D686F
:1009800005F44041890B074D6B5CC568B5FBF3F579
:10099000056130BD0010024000127A0000093D00E0
:1009A00000000020100000207047000010B5002457
:1009B00010E00A48015D0A4800F05FFC02E009A06F
:1009C00000F00CFD8021064800F08AFB0028F6D0DC
:1009D000601C84B2092CECDB10BD00004A00002032
:1009E0000044004053656E645F436D645F747269D8
:1009F000675F436D645F666C61675F776169742EE2
:100A00002E2E0D0A0000000010B5002410E00A4848
:100A1000015D0A4800F031FC02E009A000F0DEFCB4
:100A20008021064800F05CFB0028F6D0601C84B2F0
:100A3000092CECDB10BD00005300002000440040F6
:100A400053656E645F436D645F747269675F4F4E98
:100A50005F666C61675F776169742E2E2E0D0A00E8
:100A600010B5002410E00A48015D0A4800F005FCBA
:100A700002E009A000F0B2FC8021064800F030FB43
:100A80000028F6D0601C84B2092CECDB10BD0000FD
:100A90002F0000200044004053656E645F436F6E7A
:100AA00074696E756F75735F666C61675F77616996
:100AB000742E2E2E0D0A000010B5002410E00A48F6
:100AC000015D0A4800F0D9FB02E009A000F086FCB5
:100AD0008021064800F004FB0028F6D0601C84B298
:100AE000092CECDB10BD0000260000200044004073
:100AF00053656E645F4D616E75616C5F666C6167B6
:100B00005F776169742E2E2E0D0A000010B5002447
:100B10000EE00A480068015D094800F0AEFB00BF26
:100B20008021074800F0DCFA0028F9D0601C84B26C
:100B300002480068005D0028EBD110BD5C00002079
:100B40000044004010B500F001F810BD0CB50020C5
:100B5000019000903348006840F4803031490860CB
:100B600000BF3048006800F4003000900198401C3D
:100B70000190009818B90198B0F5A06FF1D12948FB
:100B8000006800F4003010B10120009001E0002066
:100B900000900098012843D12348006840F01000DD
:100BA000214908600846006820F0070008600846F0
:100BB000006840F0020008601A484068194948601F
:100BC0000846406848600846406840F480604860D5
:100BD0000846406820F47C1048600846406840F4AD
:100BE000E81048600846006840F08070086000BF68
:100BF0000C48006800F000700028F9D009484068EF
:100C000020F00300074948600846406840F00200B1
:100C1000486000BF0348406800F00C000828F9D184
:100C20000CBD000000100240002002407047000090
:100C300010B51348006840F00100114908600846EB
:100C40004068104908400E494860084600680E494F
:100C500008400B4908600846006820F480200860BE
:100C60000846406820F4FE0048604FF41F0088608A
:100C7000FFF768FF4FF000600449086010BD0000F6
:100C8000001002400000FFF8FFFFF6FE08ED00E054
:100C900010B50121124800F038F801281ED1114882
:100CA0000068401C0F4908600F48006808B901201F
:100CB00000E000200C4908600A480068462809D175
:100CC0000120086000220121054800F02FF80020D3
:100CD000044908600121024800F008F810BD000036
:100CE000000400406C000020A4812142CA4302821B
:100CF000704721B1028842F00102028004E00288BC
:100D00004FF6FE731A400280704730B5024600204D
:100D100000230024158A05EA0103958905EA0104E8
:100D200013B10CB1012000E0002030BD1AB183895D
:100D30000B43838102E083898B43838170470000EA
:100D4000002202881D4B98420ED01D4B98420BD0BA
:100D5000B0F1804F08D01B4B984205D01A4B9842F7
:100D600002D01A4B984204D14FF68F731A404B8829
:100D70001A43174B984207D0164B984204D04FF6AF
:100D8000FF431A40CB881A4302808B8883850B88E7
:100D900003850A4B98420BD0094B984208D00E4B62
:100DA000984205D00D4B984202D00D4B984201D18C
:100DB0000B7A03860123838270470000002C0140D8
:100DC000003401400004004000080040000C0040D6
:100DD0000010004000140040004001400044014069
:100DE0000048014010B540F22551184800F085F93F
:100DF00050B3164800F03CFAC4B215480088B0F56C
:100E0000006F02D300201249088011480188008831
:100E1000401C0F4A10800F48445410460088022896
:100E20000CDB10460088401E0A49085C0D2805D1DD
:100E30000948FFF7B9F901200849087040F2255127
:100E4000024800F0E3F800BF10BD00000038014088
:100E500022000020CC120020CC1A00202500002007
:100E600010B540F225513D4800F047F9002873D0F5
:100E70003A4800F0FDF9C4B239480088B0F5006F77
:100E800002D3002036490880354801880088401C7C
:100E9000334A10803348445410460088C01F3149FB
:100EA000085C02282ED110460088801F085C48BBD1
:100EB00010460088401F085C20BB10460088001FB9
:100EC000085C01281ED110460088C01E085CC8B905
:100ED00010460088801E085C332813D11046008815
:100EE000401E085C31280DD14FF400611D48FFF70A
:100EF00042F94FF400611C48FFF73DF90020184902
:100F0000088023E01648008802281FDB1448008868
:100F1000401E1449085C0D2805D011480088401E69
:100F2000085C2E2812D10F490F48FFF73DF9012028
:100F30000E4908700E490860002201210D48FFF794
:100F4000F5FE00200C4908600C49087040F225515C
:100F5000024800F05BF800BF10BD000000440040F4
:100F600020000020CC020020CC0A00202400002019
:100F7000A4812142000400406C0000207000002089
:100F800010B540F225511D4800F0B7F810B31B48CA
:100F900000F06EF9C4B21A48008800F40040C8B9E5
:100FA0001748008800F4804060B10A2C03D000206C
:100FB0001349088020E01248008840F4004010499E
:100FC000088019E00D2C06D10D48008840F48040BF
:100FD0000B49088010E00B480088C0F30D000A4957
:100FE0000C5407480088401C0549088008460088C2
:100FF000C72801DD0020088010BD00000048004027
:101000001C0000201A0000200402002010B500225D
:10101000002340F66A14A14200D100BF0A12012445
:101020009440A3B2DC43048010BD21B1828942F414
:101030000052828104E082894DF6FF731A4082815A
:101040007047000010B504462048844209D10121B0
:101050008803FFF72FFC00214FF48040FFF72AFCA4
:1010600032E01B48844209D101214804FFF702FC09
:1010700000214FF40030FFF7FDFB25E015488442C6
:1010800009D101218804FFF7F5FB00214FF48020EE
:10109000FFF7F0FB18E01048844209D10121C80491
:1010A000FFF7E8FB00214FF40020FFF7E3FB0BE024
:1010B0000A48844208D101210805FFF7DBFB002123
:1010C0004FF48010FFF7D6FB10BD00000038014040
:1010D0000044004000480040004C004000500040E8
:1010E00002460020B1F5007F00D100BF13880B40FD
:1010F0000BB1012000E00020704770B502460024CB
:1011000000230025002040F66A16B14200D100BF3E
:10111000C1F3421501F01F03012606FA03F3012D66
:1011200002D19689334006E0022D02D1168A33405F
:1011300001E0968A33400C12012606FA04F4168860
:10114000344013B10CB1012000E0002070BDF0B5B7
:101150000346002400260025002040F66A17B94205
:1011600000D100BF1846C1F3421401F01F06012749
:1011700007FA06F5012C01D10C3004E0022C01D154
:10118000103000E014301AB107682F43076002E006
:101190000768AF430760F0BD2DE9F04786B005460C
:1011A0000E460024A24600BFA1460027B08900B128
:1011B00000BF2F462C8A4CF6FF700440F088044391
:1011C0002C82AC894EF6F3100440B0883189084374
:1011D000718908430443AC81AC8A4FF6FF40044058
:1011E000B0890443AC8201A8FFF774FB1F48874213
:1011F00002D1DDF810A001E0DDF80CA0A88900F410
:10120000004040B10AEBCA0000EB0A103168490007
:10121000B0FBF1F807E00AEBCA0000EB0A103168F6
:101220008900B0FBF1F86420B8FBF0F0040120095C
:10123000642101FB1089A88900F4004040B13220EC
:1012400000EBC900B0FBF1F000F00700044308E038
:10125000322000EB09106421B0FBF1F000F00F0028
:1012600004432C8106B0BDE8F0870000003801403F
:1012700001468888C0F308007047C1F308028280E5
:10128000704700BFFEE7000010B586B0044601219C
:1012900044F20400FFF7FEFA2448FFF7D3FE1820BB
:1012A0008DF817004FF40070ADF8140003208DF88E
:1012B000160005A91E48FFF787F804208DF81700CF
:1012C0000002ADF8140003208DF8160005A9184897
:1012D000FFF77AF825208DF8100001208DF8130013
:1012E00003208DF811008DF8120004A8FFF778FA9A
:1012F00000940020ADF80C000C20ADF80A0000208E
:10130000ADF80800ADF80600ADF8040069460748DE
:10131000FFF742FF012240F225510448FFF717FF73
:1013200001210248FFF781FE06B010BD00380140E0
:101330000008014010B586B0044601210420FFF7E3
:10134000A9FA01214804FFF785FA2248FFF77AFE3F
:1013500018208DF817000420ADF8140003208DF834
:10136000160005A91C48FFF72FF804208DF8170078
:101370000820ADF8140005A91748FFF725F80194D7
:101380000020ADF810000C20ADF80E000020ADF8E4
:101390000C00ADF80A00ADF8080001A90D48FFF7F0
:1013A000FBFE01210B48FFF740FE012240F22551D0
:1013B0000848FFF7CCFE26208DF8000001208DF8AC
:1013C00003008DF801008DF802006846FFF708FA67
:1013D00006B010BD00440040000801400FB4054BAA
:1013E00010B503A9044A029800F017F810BC5DF884
:1013F00014FB0000F11400081400002002E008C8EB
:10140000121F08C1002AFAD170477047002001E07E
:1014100001C1121F002AFBD170472DE9F84F9946F0
:10142000924688460546002706E025280AD0514600
:101430004A4690476D1C7F1C28780028F5D1384615
:10144000BDE8F88F002315F8011F18462E2915D185
:1014500015F8011F04232A290DD06FF02F022978D7
:10146000A1F13004092C09D800EB800002EB400008
:1014700008446D1CF3E758F8040B6D1C2A78002A09
:10148000DDD0632A07D0732A0FD0104651464A4652
:1014900090477F1C2AE018F8042B8DF800200021CB
:1014A0008DF801106E46012103E058F8046B4FF0EF
:1014B000FF315A074FF0000401D409E0641C844254
:1014C0000BDA8C42FADB325D002AF7D105E0641CAE
:1014D0008C42FCDB305D0028F9D1274404E016F88B
:1014E000010B51464A469047641EF8D26D1CA3E793
:1014F00000BF054A128802F04002002AF9D0C2B2A9
:10150000014B1B1D1A807047003801401FB5012197
:101510000820FFF7BFF91820ADF80C0004208DF863
:101520000F0003A91848FEF74FFF01210846FFF7F7
:10153000B1F903210120FEF727FF04210120FEF766
:1015400023FF1820019000208DF8080008208DF856
:10155000090001208DF80A0001A8FEF7CBFE092042
:101560008DF800000F208DF801008DF80200012099
:101570008DF803006846FFF733F90A208DF8000064
:101580006846FFF72DF91FBD000C014001210846F8
:10159000FFF780F901211A48FEF7A2FF4FF4165019
:1015A000FFF7C8FE4FF4E130FFF76EFEFFF7AEFF26
:1015B000FFF7B0F80120FEF716FE12A0FFF70EFFAE
:1015C0006420FEF710FE4FF400611148FEF7D3FDD2
:1015D0004FF400610F48FEF7CEFD00200E49088051
:1015E0000E4908700BE00D480078012801D1FFF783
:1015F0006FF80B480078012801D1FEF7BFFFF2E732
:101600000002300048656C6C6F210D0A000000007C
:10161000CC020020CC0A0020200000202400002062
:10162000250000205265616444657669636549441C
:101630002E00000041545F52656164446576696321
:101640006549440D0000000041545F4D414E554135
:101650004C0D000041545F434F4E54494E554F5579
:1016600052530D0084160008000000207400000092
:10167000FC130008F8160008740000205C26000027
:101680000C1400080000000001020304010203041E
:101690000607080902040608000000000000000018
:1016A000000000000000000000007E0008010000B3
:1016B000D4ABCD7E0008010000D6ABCD7E00080182
:1016C0000006FEABCD7E00080100069BABCD7E0080
:1016D00008010000D5EF417E00080100020102DA96
:1016E000241600083416000854160008481600088E
:0816F0000000000000000000F2
:0400000508000131BD
:00000001FF
