:020000040800F2
:10000000880D0020210100087F0A000889070008E8
:100010007D0A00088D0100081D1300080000000083
:10002000000000000000000000000000A90D000812
:10003000D101000800000000E50A0008D111000805
:100040003B0100083B0100083B0100083B010008A0
:100050003B0100083B0100083B0100083B01000890
:100060003B0100083B0100083B0100083B01000880
:100070003B0100083B0100083B0100083B01000870
:100080003B0100083B0100083B0100083B01000860
:100090003B0100083B0100083B0100083B01000850
:1000A0003B0100083B0100083B0100083B01000840
:1000B0003B0100083B0100083B0100083B01000830
:1000C0003B0100083B0100083B0100083B01000820
:1000D0003B0100083B0100083B0100083B01000810
:1000E0003B0100083B0100083B010008DFF80CD091
:1000F00000F03AF800480047D5170008880D0020A6
:10010000EFF30980704780F309887047EFF30880A8
:10011000704780F30888704740BA7047C0BA70478C
:100120000648804706480047FEE7FEE7FEE7FEE791
:10013000FEE7FEE7FEE7FEE7FEE7FEE7D511000873
:10014000ED00000840EA01039B0703D009E008C95D
:10015000121F08C0042AFAD203E011F8013B00F88C
:10016000013B521EF9D27047064C074D06E0E0688D
:1001700040F0010394E8070098471034AC42F6D3EE
:10018000FFF7B8FF801B0008A01B0008FEE7000077
:100190000022014403E000BF10F8013B1A448842EA
:1001A000FAD3D0B27047000030B50446002065187D
:1001B00004E000BF14F8011B01F0A0F8AC42F9D331
:1001C000002101F09BF8BDE83040002101F096B815
:1001D0007047000030B51A498379026853B30B6841
:1001E00093430B600A1D13680468A34313600279EC
:1001F0000A441368046823431360114A08321368E1
:100200000468A3431360131D1C680568AC431C609D
:100210004479102C05D021440A68006802430A6022
:1002200030BD1168046821431160196800680143FA
:10023000196030BD0079084401689143016030BD08
:100240000004014010B500F0B3F9352000F00AF8C1
:10025000034800F02BF9044600F070F9204610BD69
:10026000002C00080149C8607047000000200240CF
:100270002DE9F0474FF001094FF00208042700F084
:1002800057F9204D06466868B04338D000F04AF967
:10029000044668683043686000F0CAF8064668683B
:1002A000411C03D0C04300F06DF80646E043400710
:1002B0000ED0E00700D18146A00701D44FF000081E
:1002C000600700D400273A464146484600F07CF9D2
:1002D000042E04D00CA0BDE8F04700F0BBBE15A072
:1002E00000F0B8FE1B4800F0B5FE1B4801681B4A31
:1002F00001F4E06111430160BFF34F8FFEE718A0E6
:10030000E9E70000000000204572726F723A204653
:100310006C61736820777269746520756E70726F96
:1003200074656374696F6E206661696C65642E2EF6
:100330002E0D0A0057726974652050726F746563E0
:1003400074696F6E2064697361626C65642E2E2E11
:100350000D0A0000641900080CED00E00400FA0525
:10036000466C617368206D656D6F7279206E6F7475
:100370002077726974652070726F74656374656448
:100380000D0A00002DE9F043C043C7B2C0F30726B1
:10039000C0F30745040E4FF40059484600F044F9F5
:1003A00004283BD1DFF87C801D4AC8F808201E4A8B
:1003B000C8F80820D8F8102042F01002C8F8102021
:1003C000FF2F06D019480780484600F02DF9042871
:1003D0001BD1FF2E07D01548801C0680484600F030
:1003E00023F9042811D1FF2D07D01048001D0580E6
:1003F000484600F019F9042807D1FF2C07D00B4814
:10040000801D0480484600F00FF9052806D0D8F872
:10041000102041F6EF731A40C8F81020BDE8F083B1
:100420002301674500200240AB89EFCD08F8FF1F8C
:1004300070B5A52500F06CF800B100254FF430260A
:10044000304600F0F1F8042827D1154C1348A0607D
:100450001448A060206940F020002061206940F02D
:1004600040002061304600F0DFF841F6EF760428C6
:100470000ED1206941F6DF7108402061206940F00B
:1004800010002061084805804FF4005000F0CCF8BF
:10049000052802D021693140216170BD23016745E3
:1004A00000200240AB89EFCD00F8FF1F70B5054674
:1004B0004FF43026304600F0B7F8042811D1094C2B
:1004C000206940F0020020616561206940F0400031
:1004D0002061304600F0A8F8216941F6FD72114014
:1004E000216170BD0020024008490420CA68D2077B
:1004F00001D001207047CA68520701D50220704719
:10050000C968C906FBD503207047000000200240DF
:1005100003490020C969890700D501207047000000
:10052000002002400148C069800870470020024056
:100530000148006A7047000000200240024801693B
:1005400041F08001016170470020024001B5009830
:10055000810503D0012101EB902008BD800A08BD70
:100560002DE9F841064600204FF4005700900D4653
:10057000384600F059F8042816D10C4C206940F098
:10058000010020613580B846384600F04DF8BF1EA6
:10059000042806D1B61C280C00963080404600F096
:1005A00043F8216939402161BDE8F881002002400B
:1005B0000348024941600349416070472301674590
:1005C00000200240AB89EFCD2DE9F041134C0746E6
:1005D000114816460D46A0601148A0604FF400581F
:1005E000404600F021F8042813D1206940F01000A3
:1005F000206135430B493D4345F0F80008804046F3
:1006000000F012F8052804D0216941F6EF7211407C
:100610002161BDE8F0810000230167450020024010
:10062000AB89EFCD02F8FF1F00B50346FFF75CFF73
:1006300003E000BFFFF758FF5B1E012803D0002B2B
:1006400000D1052000BD002BF4D1FAE710B58A07D0
:1006500021F003040649130F21440F228C689A40AD
:1006600094438C608A68984002438A6010BD000001
:1006700000000140F0B5CA78002502F00F03D20651
:1006800001D58A7813430A784FF00F0E12F0FF0F4E
:100690004FF001021CD004680F8802FA05F63740BB
:1006A000B74211D14FEA850C0EFA0CF724EA07077E
:1006B00003FA0CF43C43CF78282F02D0482F02D005
:1006C00002E0466100E006616D1C082DE4D3046081
:1006D0000C88FF2C1ED944685FF0000606F108075D
:1006E00002FA07F50F882F40AF420FD14FEA860C70
:1006F0000EFA0CF7BC4303FA0CF73C43CF78282FD3
:1007000000D14561CF78482F00D10561761C082EB5
:10071000E4D34460F0BD0000F0B5144C002801DAC9
:10072000E36900E06368420D120185B2C0F301572E
:100730009540C0F30346032F05D0C2020AD5032219
:10074000B240934307E023F07062636823F0706364
:10075000636002E0AB4343F0706201B12A430028BA
:1007600001DAE261F0BD6260F0BD0000000001400E
:1007700008B500208DF80000684600F0D5FB002881
:10078000FAD09DF8000008BDFEE70000F0B5002299
:100790000D4B154614460A27B1FBF3F63036865446
:1007A000B1FBF3F603FB1611B3FBF7F3521C8618EB
:1007B00016F8016C302E00D125B16D1C641C0A2C7A
:1007C000EAD3F0BD0022F9E700CA9A3B29482A4C37
:1007D00001250068A0F10060000B206005FA00F020
:1007E000401EC0436060FFF7A3FE6168814301D0F3
:1007F000A56001E00020A06020A000F02BFC2FA04D
:1008000000F028FC3DA000F025FC4CA000F022FCEC
:10081000A06810B159A000F01DFC68A000F01AFCFF
:10082000FFF7A6FF312806D0322807D0332808D09A
:10083000342810D012E000F0B9FADDE700F094FBA4
:10084000DAE76E4948682061E0600868FFF761FCFC
:10085000E0688047D0E7A068012806D0A06838B1DA
:1008600067A000BF00F0F6FBC6E7FFF701FDC3E796
:1008700073A0F7E718000020000000200D0A3D3D9E
:100880003D3D3D3D3D3D3D3D3D3D3D3D3D3D3D3D98
:10089000204D61696E204D656E75203D3D3D3D3DAD
:1008A0003D3D3D3D3D3D3D3D3D3D3D3D3D3D3D3D78
:1008B0003D3D3D3D3D3D3D0D0A0A00002020446F79
:1008C000776E6C6F616420496D61676520546F209D
:1008D0007468652053544D33324631307820496E68
:1008E0007465726E616C20466C617368202D2D2DCD
:1008F0002D2D2D2D20310D0A0A00000020205570CD
:100900006C6F616420496D6167652046726F6D2070
:100910007468652053544D33324631307820496E27
:100920007465726E616C20466C617368202D2D2D8C
:100930002D2D2D2D20320D0A0A0000002020457893
:10094000656375746520546865204E657720507224
:100950006F6772616D202D2D2D2D2D2D2D2D2D2D9F
:100960002D2D2D2D2D2D2D2D2D2D2D2D2D2D2D2DB7
:100970002D2D2D2D20330D0A0A0000002020446962
:100980007361626C65207468652077726974652094
:1009900070726F74656374696F6E202D2D2D2D2D0F
:1009A0002D2D2D2D2D2D2D2D2D2D2D2D2D2D2D2D77
:1009B0002D2D2D2D20340D0A0A0000003D3D3D3D1A
:1009C0003D3D3D3D3D3D3D3D3D3D3D3D3D3D3D3D57
:1009D0003D3D3D3D3D3D3D3D3D3D3D3D3D3D3D3D47
:1009E0003D3D3D3D3D3D3D3D3D3D3D3D3D3D3D3D37
:1009F0003D3D3D3D3D3D0D0A0A0000000030000830
:100A0000496E76616C6964204E756D626572202155
:100A1000203D3D3E20546865206E756D62657220F4
:100A200073686F756C6420626520656974686572AF
:100A300020312C20322C2033206F7220340D000006
:100A4000496E76616C6964204E756D626572202115
:100A5000203D3D3E20546865206E756D62657220B4
:100A600073686F756C64206265206569746865726F
:100A700020312C2032206F7220330D00FEE77047AA
:100A800070B50F23C47801780122F4B1144C2468A6
:100A9000457804F4E064C4F5E064240AC4F1040673
:100AA000E3408478B5401C402C4301F1E021230150
:100AB00081F80034007800F01F018A40400980006E
:100AC00000F1E020C0F8002170BD01F01F0082405D
:100AD0004809800000F1E020C0F8802170BD0000CE
:100AE0000CED00E070470000044A0029D16901D0F4
:100AF000014300E08143D1617047000000100240D3
:100B0000044A0029916901D0014300E081439161C9
:100B1000704700000010024030B51F494A6812F0CB
:100B20000C031E4A03D0042B01D0082B21D00260F5
:100B30004A680F231A4C03EA1212A35C0268DA40D7
:100B400042604B68072505EA1323E35C22FA03F3AE
:100B500083604B6805EAD323E35CDA40C2604968EE
:100B6000032303EA9131231F595CB2FBF1F10161C8
:100B700030BD4A684B6802F470124FF0020413F45F
:100B8000803F04EB924202D04B689B0301D5054B9A
:100B900000E0024B5A43CAE70010024000127A00FC
:100BA0002C00002000093D0070B50C46054604E00D
:100BB000284600F0B9F9012804D0641EF8D24FF09D
:100BC000FF3070BD002070BD2DE9F84F8846002130
:100BD0000646C8F80010924611466846FFF7E4FF43
:100BE0004FF0FF39B0BB9DF80000182814D006DC88
:100BF000012809D0022809D004282BD12EE0412851
:100C000016D0612826D113E0802401E04FF48064DF
:100C100001253070671D15E051466846FFF7C4FF97
:100C2000C0B99DF80000182814D1C8F8009015E04C
:100C30000120BDE8F88F70195146FFF7B5FF48B99C
:100C40006D1CADB2BD42F6D3B178707881F0FF0172
:100C5000884201D04846ECE7C8F800400020E8E7A9
:100C6000F8B50E46044627492648083150F82400B6
:100C700051F82410084340F001000121FFF740FF24
:100C8000204D083DBCB301210820FFF745FD55F874
:100C900024000121FFF728FF18208DF803001948D0
:100CA0006946183830F81400ADF8000003208DF8BC
:100CB0000200154850F82400FFF7DCFC04208DF8F2
:100CC000030010486946143830F81400ADF80000ED
:100CD0000D48083050F82400FFF7CCFC0A4D31468F
:100CE000083D55F8240000F0AFFA55F82400012122
:100CF00000F098FAF8BDFFE701212868FFF700FF30
:100D0000CAE70000D4180008440000207FB504465C
:100D100023480D46012150F8240040F00100FFF760
:100D2000EFFE04208DF80F001D4803A9103830F89D
:100D30001400ADF80C001B4850F82400FFF79AFC93
:100D4000012D2CD11648403010F81410103810F82E
:100D50001400FFF77BFC1248203030F8140000909C
:100D600000208DF804000CB10C2000E008208DF864
:100D7000050001258DF806506846FFF72BFA084854
:100D8000503010F814008DF808000F208DF809007D
:100D90008DF80A008DF80B5002A8FFF771FE7FBD99
:100DA0000419000864000020704700003EB518A236
:100DB00007CA8DE8070019A000F04CF9264800F09A
:100DC00005FB041E14DD254800F044F9244800F01A
:100DD00041F921466846FFF7D9FC22A000F03AF914
:100DE000684600F037F922A000F034F923A008E0AB
:100DF000601C05D0A01C07D0E41C07D025A000E093
:100E00002CA000F027F93EBD3AA0FAE740A0F8E791
:100E100020202020202020202020000057616974FD
:100E2000696E6720666F72207468652066696C65FC
:100E300020746F2062652073656E74202E2E2E2024
:100E40002870726573732027612720746F20616298
:100E50006F7274290A0D000084000020B019000888
:100E6000840400200A0D2053697A653A20000000AE
:100E70002042797465730D0A000000002D2D2D2D80
:100E80002D2D2D2D2D2D2D2D2D2D2D2D2D2D2D0AB5
:100E9000000000000A0D4661696C656420746F20D3
:100EA00072656365697665207468652066696C653E
:100EB000210A0D000A0A0D54686520696D61676595
:100EC0002073697A65206973206869676865722094
:100ED0007468616E2074686520616C6C6F776564FE
:100EE000207370616365206D656D6F7279210A0DE5
:100EF000000000000A0A0D56657269666963617434
:100F0000696F6E206661696C6564210A0D000000DE
:100F10000D0A0A41626F72746564206279207573EC
:100F200065722E0A0D00000010B504462021054808
:100F300000F082F9002804D00248001D00882070CB
:100F4000012010BD0038014010B5064C0146204676
:100F500000F0D0F98021204600F06EF90028F9D089
:100F600010BD00000038014010B50BA000F072F871
:100F7000FFF7FEFB432801D015A009E04FF45042D3
:100F800019A11F4800F012FB08B11EA000E028A024
:100F9000BDE8104000F05EB80A0A0D53656C656349
:100FA0007420526563656976652046696C65202EFC
:100FB0002E2E2028707265737320616E79206B6508
:100FC0007920746F2061626F7274290A0D0000002D
:100FD0000D0A0A41626F727465642062792075732C
:100FE00065722E0A0D00000055706C6F61646564B7
:100FF000466C617368496D6167652E62696E0000B9
:10100000003000080A0D4572726F72204F636375DD
:10101000726564207768696C65205472616E736DC7
:10102000697474696E672046696C650A0D0000007A
:101030000A0D46696C6520547261736D697474653C
:1010400064205375636365737366756C6C79200AED
:101050000D00000010B5044603E000BFFFF774FF69
:10106000641C20780028F9D110BD00000CB50021C7
:10107000264801910091026842F4803202604FF4E8
:10108000A063026802F400320092019A521C01929D
:10109000009A12B9019A9A42F3D10268920333D5A9
:1010A000012100911A490A6842F010020A600A6898
:1010B00022F003020A600A6842F002020A604168F4
:1010C000416041684160416841F48061416041682C
:1010D00021F47C114160416841F4E81141600168EC
:1010E00041F08071016001688901FCD5416821F0FF
:1010F00003014160416841F0020141604168C1F370
:1011000081010229FAD10CBD00910CBD00100240F2
:101110000020024070B5002204781346302C04D120
:101120004478782C0AD0582C08D06FF02F05845CB6
:1011300074B36B2C2ED04B2C2CD030E082780AB3B9
:101140000224025D5AB1A2F14105052D0AD9A2F18E
:101150006106052E06D91135092D07D913E00120A6
:101160000B6011E0A2F13006092E01D8303A04E0FC
:10117000052D01D8373A00E0573A641C02EB0313FF
:101180000B2CDED302E000200B2C00D3002070BD1E
:101190000B6002E01AB1980207E0012015E06D2C07
:1011A00001D04D2C03D112B118050860F5E7A4F168
:1011B0003006092E08D803EB830305EB4303521CCA
:1011C00023440B2AB3D3E1E700200B2ADED270BD03
:1011D000704700000F4810B5016841F0010101603F
:1011E00041680D4A1140416001680C4A114001609C
:1011F000016821F480210160416821F4FE01416011
:101200004FF41F018160FFF731FF05494FF0006087
:10121000086010BD001002400000FFF8FFFFF6FE5E
:1012200008ED00E00029818902D041F4005101E07D
:1012300021F40051818170470246002012880A4241
:1012400000D001207047000030B50446008A85B008
:101250000D464CF6FF710840E98801432182A189BF
:101260004EF6F3100140A8882A8910436A890A4380
:101270001043A081A08A4FF6FF410840A98901438D
:10128000A1826846FFF748FC1948844201D10398BF
:1012900000E00298A189090400EBC00101EB0010F5
:1012A000296801D5490000E08900B0FBF1F0642213
:1012B000B0FBF2F109010B096FF018056B4300EB6D
:1012C0008300A3891D044FF0320306D503EBC00051
:1012D000B0FBF2F000F0070005E003EB0010B0FBFC
:1012E000F2F000F00F000843208105B030BD00008F
:1012F00000380140C1F308018180704741F48071DA
:1013000041F2210240004900CB0500D5401CC30337
:1013100000D55040CB03F5D580B27047FEE7FEB54F
:1013200005460120002628706E70FF20A870344604
:1013300003E02B19641CD870A4B2085D08B1FF2C1F
:10134000F7D92819C67068461168FFF71FFA002000
:10135000241DA1B26B4604E0401C6A54491C80B2B3
:1013600089B21A5C002AF7D102E06E54491C89B296
:101370008329FAD3FEBD70B54FF48066B34201D322
:10138000344600E08024A34200D323469DB2B442F9
:1013900001D1022300E001230B704A70D2438A700E
:1013A0000322EB1C04E010F8016B8E54521C92B225
:1013B0009A42F8D3A54208D81A2298B2E41C02E057
:1013C0000A54401C80B2A042FAD370BD2DE9F04F00
:1013D00080460020ADF2244D6B4CDFF8A8B1CDF86B
:1013E0000804C4F804B0054607464FF480194FF0CE
:1013F000FF3ACDF8100400264A460DF20C4168462B
:10140000FFF7E2FB88B1012868D0002F00DD6D1CDA
:10141000052D79DD1820FFF797FD1820FFF794FDC3
:1014200000200DF2244DBDE8F08FDDF80C240025DE
:10143000524507D042B19DF80100F1B288420BD06D
:1014400015209BE00620E9E70620FFF77DFDDDF88B
:1014500010040028CFD05BE046B140460DF10301F7
:10146000FEF770FE0027C4F810806CE09DF80300C2
:1014700098B30021454B0DF1030002E05A54401C83
:10148000491C02780AB1FF29F8DD00275F5439466C
:101490000DF21443401C02E05A54401C491C0278CF
:1014A000202A01D01029F7DB5F540DF58161184621
:1014B000FFF730FEDDF80804B0F5803F07DB1820A9
:1014C000FFF742FD1820FFF73FFD5046A9E7FFF761
:1014D0003DF8C4E9027038460BE016E044E062884B
:1014E000616802FB0010FEF7E1FF2070A068401C5D
:1014F000A060E168884202D221780429EFD006205A
:10150000FFF722FD43202AE037E00620FFF71CFD0D
:10151000DDF8080485E721690968FFF721F86068AC
:10152000216902680B689A4208D01820FFF70CFD69
:101530001820FFF709FD6FF0010072E7091D001D7B
:1015400021613F1D6060DDF80C04874206DADDF89A
:101550000824606802EB0B018842DCD30620FFF709
:10156000F3FC0127761C47E71820FFF7EDFC182055
:10157000FFF7EAFC6FF0020053E74320FFF7E4FCBB
:101580003AE7000000300008140000208404002026
:1015900070B50D460646002404E0305DFFF7D4FC2C
:1015A000641CA4B2AC42F8D370BD00002DE9F74F23
:1015B000ADF5A26D8146002420460DF581620B5CDD
:1015C0001354401CC0B2FF28F9D301270DF5A362C4
:1015D0000DF581616846FFF7A2FE83216846FFF79B
:1015E000D7FF6D4642F2107A04E083216846FFF788
:1015F000CFFF67B18021E81CFEF7D6FD0646000A42
:10160000FFF7A2FCF0B2FFF79FFCA84606E080219E
:1016100008F10300FEF7BCFDFFF796FC51460DF5FF
:10162000A160FFF7C1FA18B1641C0A2CDDD3B7E042
:101630009DF808050628F8D10A2C6BD2CDF80C9538
:101640004FF0010BDDF818554EE000BF0BF0FF0224
:101650002B466946DDF80C05FFF78DFE00208DF85E
:10166000080506464FF48064A54200D28024E11CA0
:101670006846FFF78DFF214608F1030047B1FEF7EA
:1016800093FD8146000AFFF75FFC09F0FF0001E0CF
:10169000FEF77EFDFFF758FC45490DF5A160FFF709
:1016A00083FA18B99DF80805062803D0761C0A2E7F
:1016B000D8D317E0DDF80C05A5422044CDF80C0581
:1016C0000DD92D1BBBF1340F04D00BF101001FFA13
:1016D00080FB05E0FF200DF21C5DBDE8F08F0025CA
:1016E0000A2E01D3F0B2F6E7002DAFD18DF80855E0
:1016F0002C4656460420FFF727FC31460DF5A16025
:10170000FFF752FA18B99DF80805062803D0641CA3
:101710000A2CEFD344E00A2C42D201208DF80000BD
:101720008DF80150FF2000248DF802008DF8085537
:10173000032047463D54401CC0B28328FAD383217E
:101740006846FFF725FF8021F81CFEF72DFD0546B2
:10175000000AFFF7F9FBE8B2FFF7F6FB31460DF59B
:10176000A160FFF721FA18B1641C0A2CE7D317E037
:101770009DF808050628F8D101250A2C10D204206E
:10178000FFF7E2FB31460DF5A160FFF70DFA18B93E
:101790009DF80805062801D0641C1DB10A2C04D34D
:1017A000E0B298E70A2CEAD3FAE7002093E70000BA
:1017B000A086010002E008C8121F08C1002AFAD161
:1017C00070477047002001E001C1121F002AFBD1C1
:1017D000704700001FB52D480068401C3DD0012413
:1017E000FEF730FD42F210710220401C8842FCDD01
:1017F000FEF7DEFE00210220FFF788FA9CB34FF4CB
:10180000E13000900020ADF80400ADF80600ADF81E
:101810000800ADF80C000C20ADF80A006946002065
:10182000FFF71EFA1A48FFF715FC1A48FFF712FCDB
:101830001948FFF70FFC1948FFF70CFC1648FFF793
:1018400009FC1748FFF706FC1148FFF703FC15A039
:10185000FFF700FCFEF7BAFFFEE7FEF7A9FE002146
:101860000220FFF753FA11480168114A1140B1F103
:10187000005FF1D141680F4A0F4C11602160006890
:10188000FEF747FC20688047E6E70000002C0008D0
:10189000341B0008501A0008041A0008E81A00084F
:1018A0009C1A00080D0A0D0A000000000030000814
:1018B0000000FE2F100000200C000020000220007D
:1018C00000044000400080000001000200400000D1
:1018D00000000200040000002000000004000000DE
:1018E00020000000100000001000000010000000A8
:1018F00010000000010000200002010002000001B1
:10190000004000100400000010000000080000006B
:101910004000000040000000200000002000000007
:101920002000000001000020000201000200000170
:101930000040001000000200010004000400030049
:101940000300030000000D00090000000100080072
:101950000E000C0006002800170006000700170004
:10196000280028002E2E2E616E642061205379738A
:1019700074656D2052657365742077696C6C2062A4
:10198000652067656E65726174656420746F20728E
:10199000652D6C6F616420746865206E6577206FBB
:1019A0007074696F6E2062797465730D0A000000AF
:1019B0000A0A0D2050726F6772616D6D696E672043
:1019C000436F6D706C6574656420537563636573F4
:1019D0007366756C6C79210A0D2D2D2D2D2D2D2DF5
:1019E0002D2D2D2D2D2D2D2D2D2D2D2D2D2D2D2D27
:1019F0002D2D2D2D2D2D2D2D2D0D0A204E616D659A
:101A00003A2000000D0A3D20202020202020202008
:101A100020202020202020202020202020202020C6
:101A200020202020202020202020202020202020B6
:101A300020202020202020202020202020202020A6
:101A400020202020202020202020203D00000000F9
:101A50000D0A3D2020202020202020202020202092
:101A60002028432920434F50595249474854203297
:101A70003031302053544D6963726F656C65637407
:101A8000726F6E6963732020202020202020202088
:101A9000202020202020203D000000000D0A3D20B5
:101AA0002020202020202020202020202020202036
:101AB0002020202020202020202020202020202026
:101AC00020204279204D4344204170706C6963614D
:101AD00074696F6E205465616D20202020202020C5
:101AE0002020203D000000000D0A3D202020202065
:101AF000496E2D4170706C69636174696F6E20501E
:101B0000726F6772616D6D696E67204170706C698C
:101B1000636174696F6E20202856657273696F6EF9
:101B200020332E332E302920202020202020203D3D
:101B3000000000000D0A3D3D3D3D3D3D3D3D3D3D2C
:101B40003D3D3D3D3D3D3D3D3D3D3D3D3D3D3D3DC5
:101B50003D3D3D3D3D3D3D3D3D3D3D3D3D3D3D3DB5
:101B60003D3D3D3D3D3D3D3D3D3D3D3D3D3D3D3DA5
:101B70003D3D3D3D3D3D3D3D3D3D3D3D0000000089
:101B8000A01B00080000002084000000B41700081B
:101B9000241C000884000020040D0000C417000865
:101BA0000000000000000000000000000000000035
:101BB00000000000040000040030000800000000E5
:101BC0000000000000000000020406080000000001
:101BD000010203040102030406070809003801405A
:101BE000004400400008014000140140000801408A
:101BF000001401400010014000100140001001409D
:101C0000001001400008014000100140000C01409C
:101C10000018014000180140001401400014014068
:041C2000001401406B
:04000005080000ED02
:00000001FF
